{
  "entropy" : "6cfbd42df51a8a4c53675172f34a606a604b55dea75beee6ac1e2bb28f608331",
  "base58":[
    ["0c19fc4e878b2fb6c7c610aa0eec1f68f2028bb6","An9mxLYzbKZ8d8EJVwVLuv5pFss"]
  ],
  "base58check":[
    [
      "0c19fc4e878b2fb6c7c610aa0eec1f68f2028bb6","1Ch7VrkAksmkAECjx1L7SmkvurPVMbsVD3",
      {
        "coin": "btc",
        "network": "mainnet"
      }
    ],
    [
      "0c19fc4e878b2fb6c7c610aa0eec1f68f2028bb6","NmHNB2T6pYWj2xRnNZZAuXkXx3iEfiQmocS",
      {
        "coin": "nox",
        "network": "mainnet"
      }
    ],
    [
      "0c19fc4e878b2fb6c7c610aa0eec1f68f2028bb6","TmQ44wk1YTapkbwJqD3KhA9nAqQznL9vqFW",
      {
        "coin": "nox",
        "network": "testnet"
      }
    ],
    [
      "0c19fc4e878b2fb6c7c610aa0eec1f68f2028bb6","Rm7NkPMsHGSuYFg1o8o4b1v7owdYArn596R",
      {
        "coin": "nox",
        "network": "privnet"
      }
    ]
  ],
  "hash" : {
    "sha256" : [
      [   "", "e3b0c44298fc1c149afbf4c8996fb92427ae41e4649b934ca495991b7852b855" ],
      [ "00", "6e340b9cffb37a989ca544e6bb780a2c78901d3fb33738768511a30617afa01d" ]
    ],
    "blake2b256" : [
      [   "", "0e5751c026e543b2e8ab2eb06099daa1d1e5df47778f7787faab45cdf12fe3a8" ],
      [ "01", "ee155ace9c40292074cb6aff8c9ccdd273c81648ff1149ef36bcea6ebb8a3e25" ]
    ],
    "hash160" : [
      [ "03194f326b7ab00f8a6e3a780450cf23eba8063b4ebc3a6cc38d53b21492863d75","0c19fc4e878b2fb6c7c610aa0eec1f68f2028bb6"]
    ]
  },
  "EC" : {
    "wif" : {
      "compressed" : [
        ["84ec10bb16e64e8d02b1142ea5c7a564c6f9ac3203d5cfd2adfaa11d62b15411","L1g6Qv9Q7H6mraoqLQ4r4pH4up2qfVqzx6y48AoUw1zkke9BnR1F"],
        ["1a6102e379162ea3f3dab3546161cff41e12ed89dfe37efc2833fd1831d3d157","Kx6zGGVJHDKe8AonXjAE5HP7GnZ3X6mWtX6KG5eFfgDdmfbDt1YE"]
      ],
      "uncompressed" : [
        ["84ec10bb16e64e8d02b1142ea5c7a564c6f9ac3203d5cfd2adfaa11d62b15411","5Jppu6F8xLxgchjnPX9aKY6uYT4b8pKMNzzZRjYq1uniBRWhZ1Z"],
        ["1a6102e379162ea3f3dab3546161cff41e12ed89dfe37efc2833fd1831d3d157","5J1uPwiJWW5Dwe7XFfYznq7pe7F4HniMNBtxLjHbb8ynVFYEh1x"]
      ]
    },
    "keypair" : {
      "compressed": [
        [ "0000000000000000000000000000000000000000000000000000000000000001",
          "0279be667ef9dcbbac55a06295ce870b07029bfcdb2dce28d959f2815b16f81798" ]
      ],
      "uncompressed": [
        [ "0000000000000000000000000000000000000000000000000000000000000001",
          "0479be667ef9dcbbac55a06295ce870b07029bfcdb2dce28d959f2815b16f81798483ada7726a3c4655da4fbfc0e1108a8fd17b448a68554199c47d08ffb10d4b8"]
      ]
    }
  },
  "TX" : {
    "nowitness" : {
      "hex" : "01000100013f4c8c3c1726e6d813071ae4eb9ffec97d0350342a70a316f500b3873a834ddb02000000ffffffff0200b89a3e0a0000001976a91469570a6c1fcb68db1b1c50b34960e714d42c7b9c88ac8033023b000000001976a914c693f8fbfe6836f1fb55579b427cfc4fd201495388ac0000000000000000",
      "tx" : {
        "txid": "cbb540d78ea976b005f9a7547b149cefab14b01e9ee7e76d7491a6a9488629e9",
        "txhash": "7d4836ee48aa5c0dfe91c70b257d7e556c9680224a4fbd9d5d1181fda4f72ee6",
        "version": 1,
        "locktime": 0,
        "expire": 0,
        "vin": [
          {
            "txid": "db4d833a87b300f516a3702a3450037dc9fe9febe41a0713d8e626173c8c4c3f",
            "vout": 2,
            "sequence": 4294967295,
            "amountin": 0,
            "blockheight": 0,
            "blockindex": 0,
            "scriptSig": {
              "asm": "",
              "hex": ""
            }
          }
        ],
        "vout": [
          {
            "amount": 44000000000,
            "scriptPubKey": {
              "asm": "OP_DUP OP_HASH160 69570a6c1fcb68db1b1c50b34960e714d42c7b9c OP_EQUALVERIFY OP_CHECKSIG",
              "hex": "76a91469570a6c1fcb68db1b1c50b34960e714d42c7b9c88ac",
              "reqSigs": 1,
              "type": "pubkeyhash",
              "addresses": [
                "RmFskNPMcPLn4KpDqYzkgwBoa5soPS2SDDH"
              ]
            }
          },
          {
            "amount": 990000000,
            "scriptPubKey": {
              "asm": "OP_DUP OP_HASH160 c693f8fbfe6836f1fb55579b427cfc4fd2014953 OP_EQUALVERIFY OP_CHECKSIG",
              "hex": "76a914c693f8fbfe6836f1fb55579b427cfc4fd201495388ac",
              "reqSigs": 1,
              "type": "pubkeyhash",
              "addresses": [
                "RmQNkCr8ehRUzJhmNmgQVByv7VjakuCjc3d"
              ]
            }
          }
        ]
      }
    },
    "witness" : {
      "hex":"01000000013f4c8c3c1726e6d813071ae4eb9ffec97d0350342a70a316f500b3873a834ddb02000000ffffffff0200b89a3e0a0000001976a91469570a6c1fcb68db1b1c50b34960e714d42c7b9c88ac8033023b000000001976a914c693f8fbfe6836f1fb55579b427cfc4fd201495388ac0000000000000000010082357a0a00000015000000000000006a47304402204c55811103d1a786210b3c88a8a852462bce22f690a555b60541d69ca88279d9022030e3ec4bb23710690317d1d03fc9af8c044593b937e92c4dd4ca0082c16a3ae3012102abb13cd5260d3e9f8bc3db8687147ace7b6e5b63b061afe37d09a8e4550cd174",
      "tx":{
        "txid": "cbb540d78ea976b005f9a7547b149cefab14b01e9ee7e76d7491a6a9488629e9",
        "txhash": "9212a91b40446db7c478903cdf812fbed89b0ea08dea5246780f5cdfa39d314c",
        "version": 1,
        "locktime": 0,
        "expire": 0,
        "vin": [
          {
            "txid": "db4d833a87b300f516a3702a3450037dc9fe9febe41a0713d8e626173c8c4c3f",
            "vout": 2,
            "sequence": 4294967295,
            "amountin": 45000000000,
            "blockheight": 21,
            "txindex": 0,
            "scriptSig": {
              "asm": "304402204c55811103d1a786210b3c88a8a852462bce22f690a555b60541d69ca88279d9022030e3ec4bb23710690317d1d03fc9af8c044593b937e92c4dd4ca0082c16a3ae301 02abb13cd5260d3e9f8bc3db8687147ace7b6e5b63b061afe37d09a8e4550cd174",
              "hex": "47304402204c55811103d1a786210b3c88a8a852462bce22f690a555b60541d69ca88279d9022030e3ec4bb23710690317d1d03fc9af8c044593b937e92c4dd4ca0082c16a3ae3012102abb13cd5260d3e9f8bc3db8687147ace7b6e5b63b061afe37d09a8e4550cd174"
            }
          }
        ],
        "vout": [
          {
            "amount": 44000000000,
            "scriptPubKey": {
              "asm": "OP_DUP OP_HASH160 69570a6c1fcb68db1b1c50b34960e714d42c7b9c OP_EQUALVERIFY OP_CHECKSIG",
              "hex": "76a91469570a6c1fcb68db1b1c50b34960e714d42c7b9c88ac",
              "reqSigs": 1,
              "type": "pubkeyhash",
              "addresses": [
                "RmFskNPMcPLn4KpDqYzkgwBoa5soPS2SDDH"
              ]
            }
          },
          {
            "amount": 990000000,
            "scriptPubKey": {
              "asm": "OP_DUP OP_HASH160 c693f8fbfe6836f1fb55579b427cfc4fd2014953 OP_EQUALVERIFY OP_CHECKSIG",
              "hex": "76a914c693f8fbfe6836f1fb55579b427cfc4fd201495388ac",
              "reqSigs": 1,
              "type": "pubkeyhash",
              "addresses": [
                "RmQNkCr8ehRUzJhmNmgQVByv7VjakuCjc3d"
              ]
            }
          }
        ]
      }
    }
  }
}