{
  "entropy" : "6cfbd42df51a8a4c53675172f34a606a604b55dea75beee6ac1e2bb28f608331",
  "base58":[
    ["0c19fc4e878b2fb6c7c610aa0eec1f68f2028bb6","An9mxLYzbKZ8d8EJVwVLuv5pFss"]
  ],
  "base58check":[
    [
      "0c19fc4e878b2fb6c7c610aa0eec1f68f2028bb6","1Ch7VrkAksmkAECjx1L7SmkvurPVMbsVD3",
      {
        "coin": "btc",
        "network": "mainnet"
      }
    ],
    [
      "0c19fc4e878b2fb6c7c610aa0eec1f68f2028bb6","NmHNB2T6pYWj2xRnNZZAuXkXx3iEfiQmocS",
      {
        "coin": "nox",
        "network": "mainnet"
      }
    ],
    [
      "0c19fc4e878b2fb6c7c610aa0eec1f68f2028bb6","TmQ44wk1YTapkbwJqD3KhA9nAqQznL9vqFW",
      {
        "coin": "nox",
        "network": "testnet"
      }
    ],
    [
      "0c19fc4e878b2fb6c7c610aa0eec1f68f2028bb6","Rm7NkPMsHGSuYFg1o8o4b1v7owdYArn596R",
      {
        "coin": "nox",
        "network": "privnet"
      }
    ],
    [
      "65ffb166a5eb252285b207a5639f97f9dbc42dfb","RmFa5hnPd3uQRpzr3xWTfr8EFZdX7dS1qzV",
      {
        "coin": "nox",
        "network": "privnet"
      }
    ]
  ],
  "hash" : {
    "sha256" : [
      [   "", "e3b0c44298fc1c149afbf4c8996fb92427ae41e4649b934ca495991b7852b855" ],
      [ "00", "6e340b9cffb37a989ca544e6bb780a2c78901d3fb33738768511a30617afa01d" ]
    ],
    "blake2b256" : [
      [   "", "0e5751c026e543b2e8ab2eb06099daa1d1e5df47778f7787faab45cdf12fe3a8" ],
      [ "01", "ee155ace9c40292074cb6aff8c9ccdd273c81648ff1149ef36bcea6ebb8a3e25" ]
    ],
    "hash160" : [
      [ "03194f326b7ab00f8a6e3a780450cf23eba8063b4ebc3a6cc38d53b21492863d75","0c19fc4e878b2fb6c7c610aa0eec1f68f2028bb6"]
    ]
  },
  "EC" : {
    "wif" : {
      "compressed" : [
        ["84ec10bb16e64e8d02b1142ea5c7a564c6f9ac3203d5cfd2adfaa11d62b15411","L1g6Qv9Q7H6mraoqLQ4r4pH4up2qfVqzx6y48AoUw1zkke9BnR1F"],
        ["1a6102e379162ea3f3dab3546161cff41e12ed89dfe37efc2833fd1831d3d157","Kx6zGGVJHDKe8AonXjAE5HP7GnZ3X6mWtX6KG5eFfgDdmfbDt1YE"]
      ],
      "uncompressed" : [
        ["84ec10bb16e64e8d02b1142ea5c7a564c6f9ac3203d5cfd2adfaa11d62b15411","5Jppu6F8xLxgchjnPX9aKY6uYT4b8pKMNzzZRjYq1uniBRWhZ1Z"],
        ["1a6102e379162ea3f3dab3546161cff41e12ed89dfe37efc2833fd1831d3d157","5J1uPwiJWW5Dwe7XFfYznq7pe7F4HniMNBtxLjHbb8ynVFYEh1x"]
      ]
    },
    "keypair" : {
      "compressed": [
        [ "0000000000000000000000000000000000000000000000000000000000000001",
          "0279be667ef9dcbbac55a06295ce870b07029bfcdb2dce28d959f2815b16f81798" ]
      ],
      "uncompressed": [
        [ "0000000000000000000000000000000000000000000000000000000000000001",
          "0479be667ef9dcbbac55a06295ce870b07029bfcdb2dce28d959f2815b16f81798483ada7726a3c4655da4fbfc0e1108a8fd17b448a68554199c47d08ffb10d4b8"]
      ]
    }
  },
  "TX" : {
    "nowitness" : {
      "hex" : "01000000013f4c8c3c1726e6d813071ae4eb9ffec97d0350342a70a316f500b3873a834ddb02000000ffffffff0200b89a3e0a0000001976a91469570a6c1fcb68db1b1c50b34960e714d42c7b9c88ac8033023b000000001976a914c693f8fbfe6836f1fb55579b427cfc4fd201495388ac00000000000000000100",
      "tx" : {
        "txid": "cbb540d78ea976b005f9a7547b149cefab14b01e9ee7e76d7491a6a9488629e9",
        "txhash": "8cf23c99de1888c3b74eedf3b9fbdb346d94154feba5295fad99b0e6d3a11fb7",
        "version": 1,
        "locktime": 0,
        "expire": 0,
        "vin": [
          {
            "txid": "db4d833a87b300f516a3702a3450037dc9fe9febe41a0713d8e626173c8c4c3f",
            "vout": 2,
            "sequence": 4294967295,
            "amountin": 0,
            "blockheight": 0,
            "blockindex": 0,
            "scriptSig": {
              "asm": "",
              "hex": ""
            }
          }
        ],
        "vout": [
          {
            "amount": 44000000000,
            "scriptPubKey": {
              "asm": "OP_DUP OP_HASH160 69570a6c1fcb68db1b1c50b34960e714d42c7b9c OP_EQUALVERIFY OP_CHECKSIG",
              "hex": "76a91469570a6c1fcb68db1b1c50b34960e714d42c7b9c88ac",
              "reqSigs": 1,
              "type": "pubkeyhash",
              "addresses": [
                "RmFskNPMcPLn4KpDqYzkgwBoa5soPS2SDDH"
              ]
            }
          },
          {
            "amount": 990000000,
            "scriptPubKey": {
              "asm": "OP_DUP OP_HASH160 c693f8fbfe6836f1fb55579b427cfc4fd2014953 OP_EQUALVERIFY OP_CHECKSIG",
              "hex": "76a914c693f8fbfe6836f1fb55579b427cfc4fd201495388ac",
              "reqSigs": 1,
              "type": "pubkeyhash",
              "addresses": [
                "RmQNkCr8ehRUzJhmNmgQVByv7VjakuCjc3d"
              ]
            }
          }
        ]
      }
    },
    "witness" : {
      "hex":"01000000013f4c8c3c1726e6d813071ae4eb9ffec97d0350342a70a316f500b3873a834ddb02000000ffffffff0200b89a3e0a0000001976a91469570a6c1fcb68db1b1c50b34960e714d42c7b9c88ac8033023b000000001976a914c693f8fbfe6836f1fb55579b427cfc4fd201495388ac0000000000000000016a47304402204c55811103d1a786210b3c88a8a852462bce22f690a555b60541d69ca88279d9022030e3ec4bb23710690317d1d03fc9af8c044593b937e92c4dd4ca0082c16a3ae3012102abb13cd5260d3e9f8bc3db8687147ace7b6e5b63b061afe37d09a8e4550cd174",
      "tx":{
        "txid": "cbb540d78ea976b005f9a7547b149cefab14b01e9ee7e76d7491a6a9488629e9",
        "txhash": "ee52419cf8edac7c540a20285108d4741066b3260b3233b2e1a0da38aad75114",
        "version": 1,
        "locktime": 0,
        "expire": 0,
        "vin": [
          {
            "txid": "db4d833a87b300f516a3702a3450037dc9fe9febe41a0713d8e626173c8c4c3f",
            "vout": 2,
            "sequence": 4294967295,
            "amountin": 45000000000,
            "blockheight": 21,
            "txindex": 0,
            "scriptSig": {
              "asm": "304402204c55811103d1a786210b3c88a8a852462bce22f690a555b60541d69ca88279d9022030e3ec4bb23710690317d1d03fc9af8c044593b937e92c4dd4ca0082c16a3ae301 02abb13cd5260d3e9f8bc3db8687147ace7b6e5b63b061afe37d09a8e4550cd174",
              "hex": "47304402204c55811103d1a786210b3c88a8a852462bce22f690a555b60541d69ca88279d9022030e3ec4bb23710690317d1d03fc9af8c044593b937e92c4dd4ca0082c16a3ae3012102abb13cd5260d3e9f8bc3db8687147ace7b6e5b63b061afe37d09a8e4550cd174"
            }
          }
        ],
        "vout": [
          {
            "amount": 44000000000,
            "scriptPubKey": {
              "asm": "OP_DUP OP_HASH160 69570a6c1fcb68db1b1c50b34960e714d42c7b9c OP_EQUALVERIFY OP_CHECKSIG",
              "hex": "76a91469570a6c1fcb68db1b1c50b34960e714d42c7b9c88ac",
              "reqSigs": 1,
              "type": "pubkeyhash",
              "addresses": [
                "RmFskNPMcPLn4KpDqYzkgwBoa5soPS2SDDH"
              ]
            }
          },
          {
            "amount": 990000000,
            "scriptPubKey": {
              "asm": "OP_DUP OP_HASH160 c693f8fbfe6836f1fb55579b427cfc4fd2014953 OP_EQUALVERIFY OP_CHECKSIG",
              "hex": "76a914c693f8fbfe6836f1fb55579b427cfc4fd201495388ac",
              "reqSigs": 1,
              "type": "pubkeyhash",
              "addresses": [
                "RmQNkCr8ehRUzJhmNmgQVByv7VjakuCjc3d"
              ]
            }
          }
        ]
      }
    },
    "twoinputs" : {
      "hex" : "01000000024d5bc33e3459ed69c0ceeca74813299696f0bde150441fdcb1055aedfc586ad402000000ffffffffdd9f4dcb71296564d79ff5cc2b4a6581e497ea47a1ebb0c92d55efe1d9d3a64602000000ffffffff02003ad0b8140000001976a91469570a6c1fcb68db1b1c50b34960e714d42c7b9c88ac8033023b000000001976a914c693f8fbfe6836f1fb55579b427cfc4fd201495388ac0000000000000000026a473044022005422cf4f7a082fe931509b44aee54c3d3c80b1f0d43ed1483ffeb7248857fe402202b9c050ed0fbb9883c8ff98d8a48c33483b32ad776d6746365f9b8851e6dcda5012102abb13cd5260d3e9f8bc3db8687147ace7b6e5b63b061afe37d09a8e4550cd1746b483045022100be434e16f4c83947b1a19fefbf319b7170b280c9a0d89c0786624a83bda337910220395753153ab55b21d7041705c75f42778d7846a41ca5cbb5b033f875d20a9f15012102abb13cd5260d3e9f8bc3db8687147ace7b6e5b63b061afe37d09a8e4550cd174",
      "hexnowit": "01000100024d5bc33e3459ed69c0ceeca74813299696f0bde150441fdcb1055aedfc586ad402000000ffffffffdd9f4dcb71296564d79ff5cc2b4a6581e497ea47a1ebb0c92d55efe1d9d3a64602000000ffffffff02003ad0b8140000001976a91469570a6c1fcb68db1b1c50b34960e714d42c7b9c88ac8033023b000000001976a914c693f8fbfe6836f1fb55579b427cfc4fd201495388ac0000000000000000",
      "hexwit": "01000200020082357a0a00000001000000000000006a473044022005422cf4f7a082fe931509b44aee54c3d3c80b1f0d43ed1483ffeb7248857fe402202b9c050ed0fbb9883c8ff98d8a48c33483b32ad776d6746365f9b8851e6dcda5012102abb13cd5260d3e9f8bc3db8687147ace7b6e5b63b061afe37d09a8e4550cd1740082357a0a00000002000000000000006b483045022100be434e16f4c83947b1a19fefbf319b7170b280c9a0d89c0786624a83bda337910220395753153ab55b21d7041705c75f42778d7846a41ca5cbb5b033f875d20a9f15012102abb13cd5260d3e9f8bc3db8687147ace7b6e5b63b061afe37d09a8e4550cd174",
      "txid": "109ad11ddca63527dc5bbf8906c33eef958e8d585e14ac3070f5af712aae4f82",
      "txhash": "c35544948c5a75e1e30de25b246ced643debaabfe2d536e57adf8092c310e2df",
      "version": 1,
      "locktime": 0,
      "expire": 0,
      "vin": [
        {
          "txid": "d46a58fced5a05b1dc1f4450e1bdf09696291348a7eccec069ed59343ec35b4d",
          "vout": 2,
          "sequence": 4294967295,
          "amountin": 45000000000,
          "blockheight": 1,
          "txindex": 0,
          "scriptSig": {
            "asm": "3044022005422cf4f7a082fe931509b44aee54c3d3c80b1f0d43ed1483ffeb7248857fe402202b9c050ed0fbb9883c8ff98d8a48c33483b32ad776d6746365f9b8851e6dcda501 02abb13cd5260d3e9f8bc3db8687147ace7b6e5b63b061afe37d09a8e4550cd174",
            "hex": "473044022005422cf4f7a082fe931509b44aee54c3d3c80b1f0d43ed1483ffeb7248857fe402202b9c050ed0fbb9883c8ff98d8a48c33483b32ad776d6746365f9b8851e6dcda5012102abb13cd5260d3e9f8bc3db8687147ace7b6e5b63b061afe37d09a8e4550cd174"
          }
        },
        {
          "txid": "46a6d3d9e1ef552dc9b0eba147ea97e481654a2bccf59fd764652971cb4d9fdd",
          "vout": 2,
          "sequence": 4294967295,
          "amountin": 45000000000,
          "blockheight": 2,
          "txindex": 0,
          "scriptSig": {
            "asm": "3045022100be434e16f4c83947b1a19fefbf319b7170b280c9a0d89c0786624a83bda337910220395753153ab55b21d7041705c75f42778d7846a41ca5cbb5b033f875d20a9f1501 02abb13cd5260d3e9f8bc3db8687147ace7b6e5b63b061afe37d09a8e4550cd174",
            "hex": "483045022100be434e16f4c83947b1a19fefbf319b7170b280c9a0d89c0786624a83bda337910220395753153ab55b21d7041705c75f42778d7846a41ca5cbb5b033f875d20a9f15012102abb13cd5260d3e9f8bc3db8687147ace7b6e5b63b061afe37d09a8e4550cd174"
          }
        }
      ],
      "vout": [
        {
          "amount": 89000000000,
          "scriptPubKey": {
            "asm": "OP_DUP OP_HASH160 69570a6c1fcb68db1b1c50b34960e714d42c7b9c OP_EQUALVERIFY OP_CHECKSIG",
            "hex": "76a91469570a6c1fcb68db1b1c50b34960e714d42c7b9c88ac",
            "reqSigs": 1,
            "type": "pubkeyhash",
            "addresses": [
              "RmFskNPMcPLn4KpDqYzkgwBoa5soPS2SDDH"
            ]
          }
        },
        {
          "amount": 990000000,
          "scriptPubKey": {
            "asm": "OP_DUP OP_HASH160 c693f8fbfe6836f1fb55579b427cfc4fd2014953 OP_EQUALVERIFY OP_CHECKSIG",
            "hex": "76a914c693f8fbfe6836f1fb55579b427cfc4fd201495388ac",
            "reqSigs": 1,
            "type": "pubkeyhash",
            "addresses": [
              "RmQNkCr8ehRUzJhmNmgQVByv7VjakuCjc3d"
            ]
          }
        }
      ],
      "blockheight": 101,
      "confirmations": 1
    }
  },
  "Block" : {
    "hex" : "080000000ad2492aca6d17384ae791d20ad7deccb7d67bf0f15d4c53fba067ca4d000000be1a38f4e14b7abe77b6cdd5449cd2698ada2108c7e55fc44643bb54ae1b45c60000000000000000000000000000000000000000000000000000000000000000ffff001e6400000000000000a113825d00000000e912f01d02181f57010ad2492aca6d17384ae791d20ad7deccb7d67bf0f15d4c53fba067ca4d000000010100000001d8055fdc29a2eb78e9eed1adb6f3ea208f4ff907a4b64cc037df40d886d69450ffffffffffffffff0280461c86000000001976a914e2901efe76aa8604003489a176581c669d6e88dc88ac80b2e60e000000001976a914868b9b6bc7e4a9c804ad3d3d7a2a6be27476941e88ac000000000000000001510164081ecdcf84765f4e5d2067726467686e766933706f6f6c363732333431363235363334393731393833382463663239326138622d346138392d343736312d616465352d376239656261623738393539",
    "json" : {
      "hash": "0000009369e44eb50c8e36fe500a2cdb88f4926a1a80bd96f4ce86c7ed5a5e40",
      "txsvalid": true,
      "confirmations": 6285,
      "version": 8,
      "weight": 419,
      "height": 100,
      "txRoot": "c6451bae54bb4346c45fe5c70821da8a69d29c44d5cdb677be7a4be1f4381abe",
      "order": 100,
      "transactions": [
        {
          "hex": "0100000001d8055fdc29a2eb78e9eed1adb6f3ea208f4ff907a4b64cc037df40d886d69450ffffffffffffffff0280461c86000000001976a914e2901efe76aa8604003489a176581c669d6e88dc88ac80b2e60e000000001976a914868b9b6bc7e4a9c804ad3d3d7a2a6be27476941e88ac000000000000000001510164081ecdcf84765f4e5d2067726467686e766933706f6f6c363732333431363235363334393731393833382463663239326138622d346138392d343736312d616465352d376239656261623738393539",
          "txid": "c6451bae54bb4346c45fe5c70821da8a69d29c44d5cdb677be7a4be1f4381abe",
          "txhash": "14ce743ab8aa076fe76877a3620ffd368bf32e974276a0c9c943e1e59a111710",
          "size": 205,
          "version": 1,
          "locktime": 0,
          "expire": 0,
          "vin": [
              {
                  "coinbase": "0164081ecdcf84765f4e5d2067726467686e766933706f6f6c363732333431363235363334393731393833382463663239326138622d346138392d343736312d616465352d376239656261623738393539",
                  "sequence": 4294967295
              }
          ],
          "vout": [
              {
                  "amount": 2250000000,
                  "scriptPubKey": {
                      "asm": "OP_DUP OP_HASH160 e2901efe76aa8604003489a176581c669d6e88dc OP_EQUALVERIFY OP_CHECKSIG",
                      "hex": "76a914e2901efe76aa8604003489a176581c669d6e88dc88ac",
                      "reqSigs": 1,
                      "type": "pubkeyhash",
                      "addresses": [
                          "Tmjc34zWMTAASHTwcNtPppPujFKVK5SeuaJ"
                      ]
                  }
              },
              {
                  "amount": 250000000,
                  "scriptPubKey": {
                      "asm": "OP_DUP OP_HASH160 868b9b6bc7e4a9c804ad3d3d7a2a6be27476941e OP_EQUALVERIFY OP_CHECKSIG",
                      "hex": "76a914868b9b6bc7e4a9c804ad3d3d7a2a6be27476941e88ac",
                      "reqSigs": 1,
                      "type": "pubkeyhash",
                      "addresses": [
                          "TmbDVVi4EdZZ1vpWYjS2wFaCKmxXchpk3qp"
                      ]
                  }
              }
          ],
          "blockhash": "0000009369e44eb50c8e36fe500a2cdb88f4926a1a80bd96f4ce86c7ed5a5e40",
          "confirmations": 6285
        }
      ],
      "stateRoot": "0000000000000000000000000000000000000000000000000000000000000000",
      "bits": "1e00ffff",
      "difficulty": 503382015,
      "nonce": "6277762802949034729",
      "timestamp": "2019-09-18T19:23:13+08:00",
      "parentroot": "0000004dca67a0fb534c5df1f07bd6b7ccded70ad291e74a38176dca2a49d20a",
      "parents": [ "0000004dca67a0fb534c5df1f07bd6b7ccded70ad291e74a38176dca2a49d20a" ],
      "children": [ "0000006bcbaae11d4e2f90b6a169db99a6f0fee33de34a3807478c19f53253cb" ]
    }
  },
  "BlockHeader" : {
    "hex" : "080000000ad2492aca6d17384ae791d20ad7deccb7d67bf0f15d4c53fba067ca4d000000be1a38f4e14b7abe77b6cdd5449cd2698ada2108c7e55fc44643bb54ae1b45c60000000000000000000000000000000000000000000000000000000000000000ffff001e6400000000000000a113825d00000000e912f01d02181f57",
    "json": {
      "hash": "0000009369e44eb50c8e36fe500a2cdb88f4926a1a80bd96f4ce86c7ed5a5e40",
      "confirmations": 7999,
      "version": 8,
      "parentroot": "0000004dca67a0fb534c5df1f07bd6b7ccded70ad291e74a38176dca2a49d20a",
      "txRoot": "c6451bae54bb4346c45fe5c70821da8a69d29c44d5cdb677be7a4be1f4381abe",
      "stateRoot": "0000000000000000000000000000000000000000000000000000000000000000",
      "difficulty": 503382015,
      "layer": 100,
      "time": 1568805793,
      "nonce": "6277762802949034729"
  }
  },
  "BlockMultipleTx" : {
    "hex" : "08000000780f1b5426ca177cc0d028772e9e1b02e20b2bd10f7d564cb15ab601000000009a9b31f63c232d819a52da7207f557b41bdf17b9c28207491a4f2487360ddd6a000000000000000000000000000000000000000000000000000000000000000037fd061cb4140000000000000c358a5d00000000f9339f9ff209150f01780f1b5426ca177cc0d028772e9e1b02e20b2bd10f7d564cb15ab60100000000020100000001bfbba8bf710023c1f9ced241e47685c5668af7a72c8172210868aa72c2a883caffffffffffffffff0215257883000000001976a914e2901efe76aa8604003489a176581c669d6e88dc88ac5d889b0e000000001976a914868b9b6bc7e4a9c804ad3d3d7a2a6be27476941e88ac0000000000000000014d02b4140870eb59c65c962f6e1b736f6c6f32303139373933393732393939333238363431333136382430303439323464632d323463662d346331372d393935652d3330646638306339316166380100000001494d0b992054db3c7423bdaf8bd3d05ad7da1dc4204a66090a82808e6bdc225d00000000ffffffff0200e1f505000000001976a91472bad14d2a5b01e866231cc3250c285fae51de2d88aca80b2680000000001976a914afda839fa515ffdbcbc8630b60909c64cfd73f7a88ac0000000000000000016a4730440220423a37601d708ad35cc4edd915a0098682631a8c6325668d1e113742ccdd6c30022049e19596d183b2cb6296c455125ef87979ac1b4d4d7baa78762e30cb3cd6517d012103383b0e1f1e92bd9cd26d961169b68944899c1600c8cb23757c25313b0091b593",
    "header" : "08000000780f1b5426ca177cc0d028772e9e1b02e20b2bd10f7d564cb15ab601000000009a9b31f63c232d819a52da7207f557b41bdf17b9c28207491a4f2487360ddd6a000000000000000000000000000000000000000000000000000000000000000037fd061cb4140000000000000c358a5d00000000f9339f9ff209150f",
    "json" : {
      "hash": "00000000051e52188f0ea365474484fc879a746f3ad8a106ded65cd807bbdcae",
      "txsvalid": true,
      "confirmations": 2803,
      "version": 8,
      "weight": 645,
      "height": 5300,
      "txRoot": "6add0d3687244f1a490782c2b917df1bb457f50772da529a812d233cf6319b9a",
      "order": 5342,
      "transactions": [
          {
              "hex": "0100000001bfbba8bf710023c1f9ced241e47685c5668af7a72c8172210868aa72c2a883caffffffffffffffff0215257883000000001976a914e2901efe76aa8604003489a176581c669d6e88dc88ac5d889b0e000000001976a914868b9b6bc7e4a9c804ad3d3d7a2a6be27476941e88ac0000000000000000014d02b4140870eb59c65c962f6e1b736f6c6f32303139373933393732393939333238363431333136382430303439323464632d323463662d346331372d393935652d333064663830633931616638",
              "txid": "ba0a6dd85b21d0f02f7398cbd7174be02a8655f587471b932574339ca6813c81",
              "txhash": "f046934480866f2c7aec2c96033bbe5dae8c300ca13ea1774da72e272270d276",
              "size": 201,
              "version": 1,
              "locktime": 0,
              "expire": 0,
              "vin": [
                  {
                      "coinbase": "02b4140870eb59c65c962f6e1b736f6c6f32303139373933393732393939333238363431333136382430303439323464632d323463662d346331372d393935652d333064663830633931616638",
                      "sequence": 4294967295
                  }
              ],
              "vout": [
                  {
                      "amount": 2205689109,
                      "scriptPubKey": {
                          "asm": "OP_DUP OP_HASH160 e2901efe76aa8604003489a176581c669d6e88dc OP_EQUALVERIFY OP_CHECKSIG",
                          "hex": "76a914e2901efe76aa8604003489a176581c669d6e88dc88ac",
                          "reqSigs": 1,
                          "type": "pubkeyhash",
                          "addresses": [
                              "Tmjc34zWMTAASHTwcNtPppPujFKVK5SeuaJ"
                          ]
                      }
                  },
                  {
                      "amount": 245074013,
                      "scriptPubKey": {
                          "asm": "OP_DUP OP_HASH160 868b9b6bc7e4a9c804ad3d3d7a2a6be27476941e OP_EQUALVERIFY OP_CHECKSIG",
                          "hex": "76a914868b9b6bc7e4a9c804ad3d3d7a2a6be27476941e88ac",
                          "reqSigs": 1,
                          "type": "pubkeyhash",
                          "addresses": [
                              "TmbDVVi4EdZZ1vpWYjS2wFaCKmxXchpk3qp"
                          ]
                      }
                  }
              ],
              "blockhash": "00000000051e52188f0ea365474484fc879a746f3ad8a106ded65cd807bbdcae",
              "confirmations": 2803
          },
          {
              "hex": "0100000001494d0b992054db3c7423bdaf8bd3d05ad7da1dc4204a66090a82808e6bdc225d00000000ffffffff0200e1f505000000001976a91472bad14d2a5b01e866231cc3250c285fae51de2d88aca80b2680000000001976a914afda839fa515ffdbcbc8630b60909c64cfd73f7a88ac0000000000000000016a4730440220423a37601d708ad35cc4edd915a0098682631a8c6325668d1e113742ccdd6c30022049e19596d183b2cb6296c455125ef87979ac1b4d4d7baa78762e30cb3cd6517d012103383b0e1f1e92bd9cd26d961169b68944899c1600c8cb23757c25313b0091b593",
              "txid": "37fa7f491868defca3af3e7a3cf00eb3b523a35db12f19297deb06b181ab3136",
              "txhash": "822ff8e5a99d739a45635c6b93d6360daea9018fd9494bf1070f3a50858143dd",
              "size": 230,
              "version": 1,
              "locktime": 0,
              "expire": 0,
              "vin": [
                  {
                      "txid": "5d22dc6b8e80820a09664a20c41ddad75ad0d38bafbd23743cdb5420990b4d49",
                      "vout": 0,
                      "sequence": 4294967295,
                      "scriptSig": {
                          "asm": "30440220423a37601d708ad35cc4edd915a0098682631a8c6325668d1e113742ccdd6c30022049e19596d183b2cb6296c455125ef87979ac1b4d4d7baa78762e30cb3cd6517d01 03383b0e1f1e92bd9cd26d961169b68944899c1600c8cb23757c25313b0091b593",
                          "hex": "4730440220423a37601d708ad35cc4edd915a0098682631a8c6325668d1e113742ccdd6c30022049e19596d183b2cb6296c455125ef87979ac1b4d4d7baa78762e30cb3cd6517d012103383b0e1f1e92bd9cd26d961169b68944899c1600c8cb23757c25313b0091b593"
                      }
                  }
              ],
              "vout": [
                  {
                      "amount": 100000000,
                      "scriptPubKey": {
                          "asm": "OP_DUP OP_HASH160 72bad14d2a5b01e866231cc3250c285fae51de2d OP_EQUALVERIFY OP_CHECKSIG",
                          "hex": "76a91472bad14d2a5b01e866231cc3250c285fae51de2d88ac",
                          "reqSigs": 1,
                          "type": "pubkeyhash",
                          "addresses": [
                              "TmZQiY7WZarVk6Fax1NgUJCoVmonrEFRzwy"
                          ]
                      }
                  },
                  {
                      "amount": 2149977000,
                      "scriptPubKey": {
                          "asm": "OP_DUP OP_HASH160 afda839fa515ffdbcbc8630b60909c64cfd73f7a OP_EQUALVERIFY OP_CHECKSIG",
                          "hex": "76a914afda839fa515ffdbcbc8630b60909c64cfd73f7a88ac",
                          "reqSigs": 1,
                          "type": "pubkeyhash",
                          "addresses": [
                              "Tmeyuj8ZBaQC8F47wNKxDmYAWUFti3XMrLb"
                          ]
                      }
                  }
              ],
              "blockhash": "00000000051e52188f0ea365474484fc879a746f3ad8a106ded65cd807bbdcae",
              "confirmations": 2803
          }
      ],
      "stateRoot": "0000000000000000000000000000000000000000000000000000000000000000",
      "bits": "1c06fd37",
      "difficulty": 470220087,
      "nonce": "1086785822744589305",
      "timestamp": "2019-09-24T23:23:56+08:00",
      "parentroot": "0000000001b65ab14c567d0fd12b0be2021b9e2e7728d0c07c17ca26541b0f78",
      "parents": [
          "0000000001b65ab14c567d0fd12b0be2021b9e2e7728d0c07c17ca26541b0f78"
      ],
      "children": [
          "0000000005102521c1248a5d33900cc546244fec439dd911d3e6b14a1f0db2c5"
      ]
    }
  },
  "ScriptTest" : [
    {
    "asm": "OP_DUP OP_HASH160 699e7e705893b4e7b3f9742ca55a743c7167288a OP_EQUALVERIFY OP_CHECKSIG",
    "hex": "76a914699e7e705893b4e7b3f9742ca55a743c7167288a88ac"
    },
    {
    "asm": "304402204cceb6f5ef004ecfbf5a6a38137f5e154e99f008289b5e9bc38f35c02a6af0420220310726bd11de57206487fc49aa250ce68e1acdfe332c736ec999abbb04e0758d01 02abb13cd5260d3e9f8bc3db8687147ace7b6e5b63b061afe37d09a8e4550cd174",
    "hex": "47304402204cceb6f5ef004ecfbf5a6a38137f5e154e99f008289b5e9bc38f35c02a6af0420220310726bd11de57206487fc49aa250ce68e1acdfe332c736ec999abbb04e0758d012102abb13cd5260d3e9f8bc3db8687147ace7b6e5b63b061afe37d09a8e4550cd174"
    }
  ],
  "ScriptRemoveTest" : [
    {
      "before":{
        "asm": "OP_DUP OP_HASH160 OP_CODESEPARATOR OP_EQUALVERIFY OP_CHECKSIG",
        "hex": "76a9ab88ac"
      },
      "after":{
        "asm": "OP_DUP OP_HASH160 OP_EQUALVERIFY OP_CHECKSIG",
        "hex": "76a988ac"
      }
    }
  ],
  "SignHashTest" : [
    {
      "txHex" : "01000100013f4c8c3c1726e6d813071ae4eb9ffec97d0350342a70a316f500b3873a834ddb02000000ffffffff0200b89a3e0a0000001976a91469570a6c1fcb68db1b1c50b34960e714d42c7b9c88ac8033023b000000001976a914c693f8fbfe6836f1fb55579b427cfc4fd201495388ac0000000000000000",
      "txId"  : "cbb540d78ea976b005f9a7547b149cefab14b01e9ee7e76d7491a6a9488629e9",
      "prvScriptHex" : "76a91465ffb166a5eb252285b207a5639f97f9dbc42dfb88ac",
      "prvScriptAsm" : "OP_DUP OP_HASH160 65ffb166a5eb252285b207a5639f97f9dbc42dfb OP_EQUALVERIFY OP_CHECKSIG",
      "type"  : "SIGHASH_ALL",
      "inIndex" : 0,
      "prefix" : "01000100013f4c8c3c1726e6d813071ae4eb9ffec97d0350342a70a316f500b3873a834ddb02000000ffffffff0200b89a3e0a0000001976a91469570a6c1fcb68db1b1c50b34960e714d42c7b9c88ac8033023b000000001976a914c693f8fbfe6836f1fb55579b427cfc4fd201495388ac00000000000000000000000000",
      "witness" : "01000300011976a91465ffb166a5eb252285b207a5639f97f9dbc42dfb88ac",
      "prefixhash": "fc96b8f5a129d3c0ce9293f1acbea9b738fb38bba09da214473f57e8b1d7e409",
      "witnesshash": "30549029d69374d02cb8d5016289eaaef3209e8c7908f6429a6e22680b749551",
      "signHash"  : "b14ca08cb6bb7185a1b22448680f6b3294401e44b26d0f0090ee033cfda19c70",
      "signature" : "304402204c55811103d1a786210b3c88a8a852462bce22f690a555b60541d69ca88279d9022030e3ec4bb23710690317d1d03fc9af8c044593b937e92c4dd4ca0082c16a3ae3"
    },
    {
      "txHex" : "01000100010ce5c5a80d3f20d07fe6715832845eca4ad3f7febd70951362c7e91f37ff0d5c02000000ffffffff0200b89a3e0a0000001976a91469570a6c1fcb68db1b1c50b34960e714d42c7b9c88ac8033023b000000001976a914c693f8fbfe6836f1fb55579b427cfc4fd201495388ac0000000000000000",
      "txId"  : "06373f8896b0ffae73fbe846a254e66429aba915492e6ec2b31886b9c228d7a8",
      "prvScriptHex" : "76a91465ffb166a5eb252285b207a5639f97f9dbc42dfb88ac" ,
      "prvScriptAsm" : "OP_DUP OP_HASH160 65ffb166a5eb252285b207a5639f97f9dbc42dfb OP_EQUALVERIFY OP_CHECKSIG",
      "signHash" : "84641b1ba5982be294fb23b94167658c587e3024a916e9d8f357217490b729d1",
      "signature" : "3044022061e957624fc53e9be6217845ed9c7251c04de33fd5143dab84e73c27193effe40220231ba5e6365277af20d41e8e08413147247070b7022f0cbbe9cbb35dc16e24d8"
    }
  ]

}