{
  "entropy" : "6cfbd42df51a8a4c53675172f34a606a604b55dea75beee6ac1e2bb28f608331",
  "base58":[
    ["0c19fc4e878b2fb6c7c610aa0eec1f68f2028bb6","An9mxLYzbKZ8d8EJVwVLuv5pFss"]
  ],
  "base58check":[
    [
      "0c19fc4e878b2fb6c7c610aa0eec1f68f2028bb6","1Ch7VrkAksmkAECjx1L7SmkvurPVMbsVD3",
      {
        "coin": "btc",
        "network": "mainnet"
      }
    ],
    [
      "0c19fc4e878b2fb6c7c610aa0eec1f68f2028bb6","NmHNB2T6pYWj2xRnNZZAuXkXx3iEfiQmocS",
      {
        "coin": "pmeer",
        "network": "mainnet"
      }
    ],
    [
      "0c19fc4e878b2fb6c7c610aa0eec1f68f2028bb6","TnCjGuxc7swkWEob1FszL8QKk6RWfkjredt",
      {
        "coin": "pmeer",
        "network": "testnet"
      }
    ],
    [
      "0c19fc4e878b2fb6c7c610aa0eec1f68f2028bb6","Rm7NkPMsHGSuYFg1o8o4b1v7owdYArn596R",
      {
        "coin": "pmeer",
        "network": "privnet"
      }
    ],
    [
      "0c19fc4e878b2fb6c7c610aa0eec1f68f2028bb6","XmAjW6HhVRVjRfbcjJhBGUNZKMyQ7oQHsaK",
      {
        "coin": "pmeer",
        "network": "mixnet"
      }
    ]
  ],
  "hash" : {
    "sha256" : [
      [   "", "e3b0c44298fc1c149afbf4c8996fb92427ae41e4649b934ca495991b7852b855" ],
      [ "00", "6e340b9cffb37a989ca544e6bb780a2c78901d3fb33738768511a30617afa01d" ]
    ],
    "blake2b256" : [
      [   "", "0e5751c026e543b2e8ab2eb06099daa1d1e5df47778f7787faab45cdf12fe3a8" ],
      [ "01", "ee155ace9c40292074cb6aff8c9ccdd273c81648ff1149ef36bcea6ebb8a3e25" ]
    ],
    "hash160" : [
      [ "03194f326b7ab00f8a6e3a780450cf23eba8063b4ebc3a6cc38d53b21492863d75","0c19fc4e878b2fb6c7c610aa0eec1f68f2028bb6"]
    ]
  },
  "EC" : {
    "wif" : {
      "compressed" : [
        ["84ec10bb16e64e8d02b1142ea5c7a564c6f9ac3203d5cfd2adfaa11d62b15411","L1g6Qv9Q7H6mraoqLQ4r4pH4up2qfVqzx6y48AoUw1zkke9BnR1F"],
        ["1a6102e379162ea3f3dab3546161cff41e12ed89dfe37efc2833fd1831d3d157","Kx6zGGVJHDKe8AonXjAE5HP7GnZ3X6mWtX6KG5eFfgDdmfbDt1YE"]
      ],
      "uncompressed" : [
        ["84ec10bb16e64e8d02b1142ea5c7a564c6f9ac3203d5cfd2adfaa11d62b15411","5Jppu6F8xLxgchjnPX9aKY6uYT4b8pKMNzzZRjYq1uniBRWhZ1Z"],
        ["1a6102e379162ea3f3dab3546161cff41e12ed89dfe37efc2833fd1831d3d157","5J1uPwiJWW5Dwe7XFfYznq7pe7F4HniMNBtxLjHbb8ynVFYEh1x"]
      ]
    },
    "keypair" : {
      "compressed": [
        [ "0000000000000000000000000000000000000000000000000000000000000001",
          "0279be667ef9dcbbac55a06295ce870b07029bfcdb2dce28d959f2815b16f81798" ]
      ],
      "uncompressed": [
        [ "0000000000000000000000000000000000000000000000000000000000000001",
          "0479be667ef9dcbbac55a06295ce870b07029bfcdb2dce28d959f2815b16f81798483ada7726a3c4655da4fbfc0e1108a8fd17b448a68554199c47d08ffb10d4b8"]
      ]
    }
  },
  "TX" : {
    "nowitness" : {
      "hex" : "01000000013f4c8c3c1726e6d813071ae4eb9ffec97d0350342a70a316f500b3873a834ddb02000000ffffffff02000000b89a3e0a0000001976a91469570a6c1fcb68db1b1c50b34960e714d42c7b9c88ac00008033023b000000001976a914c693f8fbfe6836f1fb55579b427cfc4fd201495388ac00000000000000001e9834600100",
      "tx" : {
        "txid": "f0f272ad7e2046a7a0955f1505ba902c9c97cfe276c15e9f4247911d6568ec61",
        "txhash": "ff650c77edd8147cac7076c998ac9b571d250fbb6db37a539dbb630be42a9b73",
        "version": 1,
        "locktime": 0,
        "expire": 0,
        "timestamp": 1614059550,
        "vin": [
          {
            "txid": "db4d833a87b300f516a3702a3450037dc9fe9febe41a0713d8e626173c8c4c3f",
            "vout": 2,
            "sequence": 4294967295,
            "amountin": 0,
            "blockheight": 0,
            "blockindex": 0,
            "scriptSig": {
              "asm": "",
              "hex": ""
            }
          }
        ],
        "vout": [
          {
            "amount": 44000000000,
            "scriptPubKey": {
              "asm": "OP_DUP OP_HASH160 69570a6c1fcb68db1b1c50b34960e714d42c7b9c OP_EQUALVERIFY OP_CHECKSIG",
              "hex": "76a91469570a6c1fcb68db1b1c50b34960e714d42c7b9c88ac",
              "reqSigs": 1,
              "type": "pubkeyhash",
              "addresses": [
                "RmFskNPMcPLn4KpDqYzkgwBoa5soPS2SDDH"
              ]
            }
          },
          {
            "amount": 990000000,
            "scriptPubKey": {
              "asm": "OP_DUP OP_HASH160 c693f8fbfe6836f1fb55579b427cfc4fd2014953 OP_EQUALVERIFY OP_CHECKSIG",
              "hex": "76a914c693f8fbfe6836f1fb55579b427cfc4fd201495388ac",
              "reqSigs": 1,
              "type": "pubkeyhash",
              "addresses": [
                "RmQNkCr8ehRUzJhmNmgQVByv7VjakuCjc3d"
              ]
            }
          }
        ]
      }
    },
    "witness" : {
      "hex":"01000000013f4c8c3c1726e6d813071ae4eb9ffec97d0350342a70a316f500b3873a834ddb02000000ffffffff02000000b89a3e0a0000001976a91469570a6c1fcb68db1b1c50b34960e714d42c7b9c88ac00008033023b000000001976a914c693f8fbfe6836f1fb55579b427cfc4fd201495388ac00000000000000001e983460016b483045022100abda2352d8e4cbd0fc23abfa770abac65518f3cd340d4b95619055b7324409660220139ab3f6ed0d8e0bffa96ab4a136019dcb8223b98756311ac37ff8f5542fbd8e012102abb13cd5260d3e9f8bc3db8687147ace7b6e5b63b061afe37d09a8e4550cd174",
      "tx":{
        "txid": "f0f272ad7e2046a7a0955f1505ba902c9c97cfe276c15e9f4247911d6568ec61",
        "txhash": "e6e6fb7b64bbd0eb8ae6d9bab95f093a766ddae7d0ae750c7d5f08288253c319",
        "version": 1,
        "locktime": 0,
        "expire": 0,
        "timestamp": 1614059550,
        "vin": [
          {
            "txid": "db4d833a87b300f516a3702a3450037dc9fe9febe41a0713d8e626173c8c4c3f",
            "vout": 2,
            "sequence": 4294967295,
            "amountin": 45000000000,
            "blockheight": 21,
            "txindex": 0,
            "scriptSig": {
              "asm": "3045022100abda2352d8e4cbd0fc23abfa770abac65518f3cd340d4b95619055b7324409660220139ab3f6ed0d8e0bffa96ab4a136019dcb8223b98756311ac37ff8f5542fbd8e01 02abb13cd5260d3e9f8bc3db8687147ace7b6e5b63b061afe37d09a8e4550cd174",
              "hex": "483045022100abda2352d8e4cbd0fc23abfa770abac65518f3cd340d4b95619055b7324409660220139ab3f6ed0d8e0bffa96ab4a136019dcb8223b98756311ac37ff8f5542fbd8e012102abb13cd5260d3e9f8bc3db8687147ace7b6e5b63b061afe37d09a8e4550cd174"
            }
          }
        ],
        "vout": [
          {
            "coinid": "MEER",
            "amount": 44000000000,
            "scriptPubKey": {
              "asm": "OP_DUP OP_HASH160 69570a6c1fcb68db1b1c50b34960e714d42c7b9c OP_EQUALVERIFY OP_CHECKSIG",
              "hex": "76a91469570a6c1fcb68db1b1c50b34960e714d42c7b9c88ac",
              "reqSigs": 1,
              "type": "pubkeyhash",
              "addresses": [
                "RmFskNPMcPLn4KpDqYzkgwBoa5soPS2SDDH"
              ]
            }
          },
          {
            "coinid": "MEER",
            "amount": 990000000,
            "scriptPubKey": {
              "asm": "OP_DUP OP_HASH160 c693f8fbfe6836f1fb55579b427cfc4fd2014953 OP_EQUALVERIFY OP_CHECKSIG",
              "hex": "76a914c693f8fbfe6836f1fb55579b427cfc4fd201495388ac",
              "reqSigs": 1,
              "type": "pubkeyhash",
              "addresses": [
                "RmQNkCr8ehRUzJhmNmgQVByv7VjakuCjc3d"
              ]
            }
          }
        ]
      }
    },
    "twoinputs" : {
      "hex" : "0100000002dd9f4dcb71296564d79ff5cc2b4a6581e497ea47a1ebb0c92d55efe1d9d3a64602000000ffffffff4d5bc33e3459ed69c0ceeca74813299696f0bde150441fdcb1055aedfc586ad402000000ffffffff020000003ad0b8140000001976a91469570a6c1fcb68db1b1c50b34960e714d42c7b9c88ac00008033023b000000001976a914c693f8fbfe6836f1fb55579b427cfc4fd201495388ac0000000000000000c2747460026a473044022022538a17f763a555682409d8ed6720df0ac049ef7c4d0e4e3c0b974ea701b68602205ac37fb0f2030b4ac6b9e82a4cf1c0ab7247952bf304421939f24181fcf4e381012103b476657062c2ea453b9c77768e091572f9c5bd086b7e29a4f03eb11ea1db1b026b4830450221009ef505e2efca2542a1291d42a6e965656ed2282b5a58312bf28954332b17e10f0220678dabd19cc86c3d82ae84ce89ab353a2337fc8c487ea8f408e8ff67e6d6804d012103b476657062c2ea453b9c77768e091572f9c5bd086b7e29a4f03eb11ea1db1b02",
      "hexnowit": "0100000002dd9f4dcb71296564d79ff5cc2b4a6581e497ea47a1ebb0c92d55efe1d9d3a64602000000ffffffff4d5bc33e3459ed69c0ceeca74813299696f0bde150441fdcb1055aedfc586ad402000000ffffffff020000003ad0b8140000001976a91469570a6c1fcb68db1b1c50b34960e714d42c7b9c88ac00008033023b000000001976a914c693f8fbfe6836f1fb55579b427cfc4fd201495388ac0000000000000000c2747460020000",
      "hexwit": "01000200020082357a0a00000001000000000000006a473044022005422cf4f7a082fe931509b44aee54c3d3c80b1f0d43ed1483ffeb7248857fe402202b9c050ed0fbb9883c8ff98d8a48c33483b32ad776d6746365f9b8851e6dcda5012102abb13cd5260d3e9f8bc3db8687147ace7b6e5b63b061afe37d09a8e4550cd1740082357a0a00000002000000000000006b483045022100be434e16f4c83947b1a19fefbf319b7170b280c9a0d89c0786624a83bda337910220395753153ab55b21d7041705c75f42778d7846a41ca5cbb5b033f875d20a9f15012102abb13cd5260d3e9f8bc3db8687147ace7b6e5b63b061afe37d09a8e4550cd174",
      "txid": "109ad11ddca63527dc5bbf8906c33eef958e8d585e14ac3070f5af712aae4f82",
      "txhash": "c839da79eb9f78720c24a4ae0d76a21ec3b4419474f65f833e3b2c4c565c5cb2",
      "version": 1,
      "locktime": 0,
      "expire": 0,
      "timestamp": 0,
      "vin": [
        {
          "txid": "d46a58fced5a05b1dc1f4450e1bdf09696291348a7eccec069ed59343ec35b4d",
          "vout": 2,
          "sequence": 4294967295,
          "amountin": 45000000000,
          "blockheight": 1,
          "txindex": 0,
          "scriptSig": {
            "asm": "3044022005422cf4f7a082fe931509b44aee54c3d3c80b1f0d43ed1483ffeb7248857fe402202b9c050ed0fbb9883c8ff98d8a48c33483b32ad776d6746365f9b8851e6dcda501 02abb13cd5260d3e9f8bc3db8687147ace7b6e5b63b061afe37d09a8e4550cd174",
            "hex": "473044022005422cf4f7a082fe931509b44aee54c3d3c80b1f0d43ed1483ffeb7248857fe402202b9c050ed0fbb9883c8ff98d8a48c33483b32ad776d6746365f9b8851e6dcda5012102abb13cd5260d3e9f8bc3db8687147ace7b6e5b63b061afe37d09a8e4550cd174"
          }
        },
        {
          "txid": "46a6d3d9e1ef552dc9b0eba147ea97e481654a2bccf59fd764652971cb4d9fdd",
          "vout": 2,
          "sequence": 4294967295,
          "amountin": 45000000000,
          "blockheight": 2,
          "txindex": 0,
          "scriptSig": {
            "asm": "3045022100be434e16f4c83947b1a19fefbf319b7170b280c9a0d89c0786624a83bda337910220395753153ab55b21d7041705c75f42778d7846a41ca5cbb5b033f875d20a9f1501 02abb13cd5260d3e9f8bc3db8687147ace7b6e5b63b061afe37d09a8e4550cd174",
            "hex": "483045022100be434e16f4c83947b1a19fefbf319b7170b280c9a0d89c0786624a83bda337910220395753153ab55b21d7041705c75f42778d7846a41ca5cbb5b033f875d20a9f15012102abb13cd5260d3e9f8bc3db8687147ace7b6e5b63b061afe37d09a8e4550cd174"
          }
        }
      ],
      "vout": [
        {
          "amount": 89000000000,
          "scriptPubKey": {
            "asm": "OP_DUP OP_HASH160 69570a6c1fcb68db1b1c50b34960e714d42c7b9c OP_EQUALVERIFY OP_CHECKSIG",
            "hex": "76a91469570a6c1fcb68db1b1c50b34960e714d42c7b9c88ac",
            "reqSigs": 1,
            "type": "pubkeyhash",
            "addresses": [
              "RmFskNPMcPLn4KpDqYzkgwBoa5soPS2SDDH"
            ]
          }
        },
        {
          "amount": 990000000,
          "scriptPubKey": {
            "asm": "OP_DUP OP_HASH160 c693f8fbfe6836f1fb55579b427cfc4fd2014953 OP_EQUALVERIFY OP_CHECKSIG",
            "hex": "76a914c693f8fbfe6836f1fb55579b427cfc4fd201495388ac",
            "reqSigs": 1,
            "type": "pubkeyhash",
            "addresses": [
              "RmQNkCr8ehRUzJhmNmgQVByv7VjakuCjc3d"
            ]
          }
        }
      ],
      "blockheight": 101,
      "confirmations": 1
    }
  },
  "Block" : {
    "hex" : "08000000e73cc75a85cfc2e5c8f5f020feba27f29a4444fe4cf5eded558304bb6c354b504b56aa4cea8da63d8f9efe13adab5988710fbac362faa28d6cf9be17ff21e37e00000000000000000000000000000000000000000000000000000000000000000000600139beb15ddb6263a30119082819008b9227001fd62700c33b3100e729370064d14900cf4b5600cd176d0036616e0049326f00e0038b0029279100430f99006a739c0083ac9d0059009f00c978a20068b4b400023fb800328fba00e99bbb004fc3c400310cd70086adda00939ff700744a0f0140e80f0154d21701850c1f01beac2401de432c013ee42d0151665501a3745a012c187a01351ca2017ae1af01b921bc0159a7c0017486d1018a5be9011f45eb0101e73cc75a85cfc2e5c8f5f020feba27f29a4444fe4cf5eded558304bb6c354b500101000000016d108c51a5e6295647fb454051105a9049d61a3980b88091f22b7f9eecfa7306ffffffffffffffff010000c02e48cb020000001976a914afda839fa515ffdbcbc8630b60909c64cfd73f7a88ac0000000000000000000000000100",
    "json" : {
      "hash": "93ccdbbf8a6ffa9b5c07653ac3963e5dabf05aa7ecf1662e63c05b471c2a14d0",
      "txsvalid": true,
      "confirmations": 11573,
      "version": 8,
      "weight": 485,
      "height": 989,
      "txRoot": "7ee321ff17bef96c8da2fa62c3ba0f718859abad13fe9e8f3da68dea4caa564b",
      "order": 1000,
      "transactions": [
          {
              "hex": "01000000016d108c51a5e6295647fb454051105a9049d61a3980b88091f22b7f9eecfa7306ffffffffffffffff010000c02e48cb020000001976a914afda839fa515ffdbcbc8630b60909c64cfd73f7a88ac0000000000000000000000000100",
              "txid": "7ee321ff17bef96c8da2fa62c3ba0f718859abad13fe9e8f3da68dea4caa564b",
              "txhash": "531060ff5193cfbaeeec80712b25e2de6fc6d83503394bf5adccd2d78e6644e9",
              "size": 169,
              "version": 1,
              "locktime": 0,
              "expire": 0,
              "vin": [
                  {
                      "coinbase": "02dd0308f3f175b7a77e83cc1d67726467686e76693331323933333335343434363037353333343135372430323734653036322d666664392d343665392d383062652d636433346361323165623961",
                      "sequence": 4294967295
                  }
              ],
              "vout": [
                  {
                      "amount": 12000440000,
                      "scriptPubKey": {
                          "asm": "OP_DUP OP_HASH160 7e43ccfefc7c6cd16fe997aa71cd5e72fbd702ae OP_EQUALVERIFY OP_CHECKSIG",
                          "hex": "76a9147e43ccfefc7c6cd16fe997aa71cd5e72fbd702ae88ac",
                          "reqSigs": 1,
                          "type": "pubkeyhash",
                          "addresses": [
                              "TmaTi4yt947FXPcWTAkMNDqtRELKceEFBb5"
                          ]
                      }
                  }
              ],
              "blockhash": "2dd292c2103611473fb8b5ac145202017356cf29abd510fc3613a5b58da87a38",
              "confirmations": 11573
          }
      ],
      "stateRoot": "0000000000000000000000000000000000000000000000000000000000000000",
      "bits": "1600000",
      "difficulty": 23068672,
      "pow": {
          "pow_name": "cuckaroo",
          "pow_type": 1,
          "nonce": 2741199579,
          "proof_data": {
              "edge_bits": 25,
              "circle_nonces": "082819008b9227001fd62700c33b3100e729370064d14900cf4b5600cd176d0036616e0049326f00e0038b0029279100430f99006a739c0083ac9d0059009f00c978a20068b4b400023fb800328fba00e99bbb004fc3c400310cd70086adda00939ff700744a0f0140e80f0154d21701850c1f01beac2401de432c013ee42d0151665501a3745a012c187a01351ca2017ae1af01b921bc0159a7c0017486d1018a5be9011f45eb01"
          }
      },
      "timestamp": "2019-10-24T23:07:37+08:00",
      "parentroot": "504b356cbb048355ededf54cfe44449af227bafe20f0f5c8e5c2cf855ac73ce7",
      "parents": [
          "504b356cbb048355ededf54cfe44449af227bafe20f0f5c8e5c2cf855ac73ce7"
      ],
      "children": [
          "319665c1e134eb122474a55439977a1d595578ac98b24f474f5942142f4f00f4"
      ]
    }
  },
  "BlockHeader" : {
    "hex" : "08000000e73cc75a85cfc2e5c8f5f020feba27f29a4444fe4cf5eded558304bb6c354b504b56aa4cea8da63d8f9efe13adab5988710fbac362faa28d6cf9be17ff21e37e00000000000000000000000000000000000000000000000000000000000000000000600139beb15ddb6263a30119082819008b9227001fd62700c33b3100e729370064d14900cf4b5600cd176d0036616e0049326f00e0038b0029279100430f99006a739c0083ac9d0059009f00c978a20068b4b400023fb800328fba00e99bbb004fc3c400310cd70086adda00939ff700744a0f0140e80f0154d21701850c1f01beac2401de432c013ee42d0151665501a3745a012c187a01351ca2017ae1af01b921bc0159a7c0017486d1018a5be9011f45eb01",
    "json": {
      "hash": "2dd292c2103611473fb8b5ac145202017356cf29abd510fc3613a5b58da87a38",
      "confirmations": 19050,
      "version": 8,
      "parentroot": "504b356cbb048355ededf54cfe44449af227bafe20f0f5c8e5c2cf855ac73ce7",
      "txRoot": "fed971d7acc31b3d3845b3620b3020c2ac9adf87fd6f3071c120880c672a15f4",
      "stateRoot": "0000000000000000000000000000000000000000000000000000000000000000",
      "difficulty": 23068672,
      "layer": 989,
      "time": 1571929657,
      "pow_result": {
          "pow_name": "cuckaroo",
          "pow_type": 1,
          "nonce": 2741199579,
          "proof_data": {
              "edge_bits": 25,
              "circle_nonces": "082819008b9227001fd62700c33b3100e729370064d14900cf4b5600cd176d0036616e0049326f00e0038b0029279100430f99006a739c0083ac9d0059009f00c978a20068b4b400023fb800328fba00e99bbb004fc3c400310cd70086adda00939ff700744a0f0140e80f0154d21701850c1f01beac2401de432c013ee42d0151665501a3745a012c187a01351ca2017ae1af01b921bc0159a7c0017486d1018a5be9011f45eb01"
          }
      }
    }
  },
  "BlockMultipleTx" : {
    "hex" : "0800000074d2bc22635dd78564d0a41a126ba64f43a4e1357076c8b674a907b6d139db17f9fc8ba94af20046a00df7b1a9f9aae4047f2e5ce23edf0c4c81868a26be58cf000000000000000000000000000000000000000000000000000000000000000000450102e70fb75dcf86220b0119d201040065a424000018300034e25f00c82c620041f06300d79e6600cf97770040ee77005aef7c00a7ad8c002e158f002f099f00ba05ba0086f5bd00c292ee000017fa00d3e70001eeb50101be1605018a050f017e8a1201babc1d01d76d2e0127fd34017b7a3e01a023440192016001c3bd67014eb46a016503710190b97301ab177901488c7e0117498001df428d016117ae014e69b0014dd9b0016b76c0014806cb011899e4010174d2bc22635dd78564d0a41a126ba64f43a4e1357076c8b674a907b6d139db170201000000017cbcf3a327aa2e203b20fe22858d7a713249524a08006b35778c5b57fc94b42affffffffffffffff010000c02e48cb020000001976a914afda839fa515ffdbcbc8630b60909c64cfd73f7a88ac0000000000000000000000000100010000000141feffca786ced5c976383f693f66d45f026819eb8ae8ba690df3c841f7dbacb00000000ffffffff02000000e40b540200000017a9149672b14a961d81e552f4535f9676f92dbe0a048e87000040895273070000001976a914a9c86f04570f50eb81441489c9a3983391e8aaf888ac00000000000000002c0f7560016b483045022100c751ccdc2a128a390c53ece5e640384088aaab459fc62bf21aee282259d8b4dc022042d9644aba225dc9fb3330e0589aad81228c7f47e3368e27001ae749ceaf5a99012102abb13cd5260d3e9f8bc3db8687147ace7b6e5b63b061afe37d09a8e4550cd174",
    "header" : "0800000074d2bc22635dd78564d0a41a126ba64f43a4e1357076c8b674a907b6d139db17f9fc8ba94af20046a00df7b1a9f9aae4047f2e5ce23edf0c4c81868a26be58cf000000000000000000000000000000000000000000000000000000000000000000450102e70fb75dcf86220b0119d201040065a424000018300034e25f00c82c620041f06300d79e6600cf97770040ee77005aef7c00a7ad8c002e158f002f099f00ba05ba0086f5bd00c292ee000017fa00d3e70001eeb50101be1605018a050f017e8a1201babc1d01d76d2e0127fd34017b7a3e01a023440192016001c3bd67014eb46a016503710190b97301ab177901488c7e0117498001df428d016117ae014e69b0014dd9b0016b76c0014806cb011899e401",
    "json" : {
      "hash": "2ab494fc575b8c77356b00084a524932717a8d8522fe203b202eaa27a3f3bc7c",
      "txsvalid": true,
      "confirmations": 3398,
      "version": 8,
      "weight": 716,
      "height": 17196,
      "txRoot": "f8695e742519b526094fc4a297cf205aecfa16c0af9b5d1085c92bc50e414e41",
      "order": 17452,
      "transactions": [
          {
              "hex": "01000000017cbcf3a327aa2e203b20fe22858d7a713249524a08006b35778c5b57fc94b42affffffffffffffff010000c02e48cb020000001976a914afda839fa515ffdbcbc8630b60909c64cfd73f7a88ac0000000000000000000000000100",
              "txid": "f49c0e88ce748a1cf3e823973847055f7e075be3b658a43bb2405d9bbd0d88cc",
              "txhash": "37e3c5f4232df8ec2ddf228046b5aad4bfdeb83ca72e81a8d468686d0afe038c",
              "size": 172,
              "version": 1,
              "locktime": 0,
              "expire": 0,
              "timestamp": 0,
              "vin": [
                  {
                      "coinbase": "022c4308287526254c37ca2e2067726467686e766933706f6f6c333337313536383037313232303535373039362432326438346436302d333135312d343336342d393464342d613863333862646561633238",
                      "sequence": 4294967295
                  }
              ],
              "vout": [
                  {
                      "amount": 12000440000,
                      "scriptPubKey": {
                          "asm": "OP_DUP OP_HASH160 afda839fa515ffdbcbc8630b60909c64cfd73f7a OP_EQUALVERIFY OP_CHECKSIG",
                          "hex": "76a914afda839fa515ffdbcbc8630b60909c64cfd73f7a88ac",
                          "reqSigs": 1,
                          "type": "pubkeyhash",
                          "addresses": [
                              "Tmeyuj8ZBaQC8F47wNKxDmYAWUFti3XMrLb"
                          ]
                      }
                  }
              ],
              "blockhash": "2ab494fc575b8c77356b00084a524932717a8d8522fe203b202eaa27a3f3bc7c",
              "confirmations": 3398
          },
          {
              "hex": "010000000141feffca786ced5c976383f693f66d45f026819eb8ae8ba690df3c841f7dbacb00000000ffffffff02000000e40b540200000017a9149672b14a961d81e552f4535f9676f92dbe0a048e87000040895273070000001976a914a9c86f04570f50eb81441489c9a3983391e8aaf888ac00000000000000002c0f7560016b483045022100c751ccdc2a128a390c53ece5e640384088aaab459fc62bf21aee282259d8b4dc022042d9644aba225dc9fb3330e0589aad81228c7f47e3368e27001ae749ceaf5a99012102abb13cd5260d3e9f8bc3db8687147ace7b6e5b63b061afe37d09a8e4550cd174",
              "txid": "9015cd55f43941ac0e99f07bc87761b735d49562be3760dc251870ce9f179840",
              "txhash": "bd7ad6ed5d77cdfadc19416c9bfee7fbc12851b66d796f3382a4bcf298632070",
              "size": 228,
              "version": 1,
              "locktime": 0,
              "expire": 0,
              "timestamp": 0,
              "vin": [
                  {
                      "txid": "cbba7d1f843cdf90a68baeb89e8126f0456df693f68363975ced6c78cafffe41",
                      "vout": 0,
                      "sequence": 4294967295,
                      "scriptSig": {
                          "asm": "3045022100c751ccdc2a128a390c53ece5e640384088aaab459fc62bf21aee282259d8b4dc022042d9644aba225dc9fb3330e0589aad81228c7f47e3368e27001ae749ceaf5a9901 02abb13cd5260d3e9f8bc3db8687147ace7b6e5b63b061afe37d09a8e4550cd174",
                          "hex": "483045022100c751ccdc2a128a390c53ece5e640384088aaab459fc62bf21aee282259d8b4dc022042d9644aba225dc9fb3330e0589aad81228c7f47e3368e27001ae749ceaf5a99012102abb13cd5260d3e9f8bc3db8687147ace7b6e5b63b061afe37d09a8e4550cd174"
                      }
                  }
              ],
              "vout": [
                  {
                      "amount": 10000000000,
                      "scriptPubKey": {
                          "asm": "OP_HASH160 9672b14a961d81e552f4535f9676f92dbe0a048e OP_EQUAL",
                          "hex": "a9149672b14a961d81e552f4535f9676f92dbe0a048e87",
                          "reqSigs": 1,
                          "type": "scripthash",
                          "addresses": [
                              "TSJSdCUHF6F8j6EdABqu5TCUK34oNZkHFfP"
                          ]
                      }
                  },
                  {
                      "amount": 31999560000,
                      "scriptPubKey": {
                          "asm": "OP_DUP OP_HASH160 a9c86f04570f50eb81441489c9a3983391e8aaf8 OP_EQUALVERIFY OP_CHECKSIG",
                          "hex": "76a914a9c86f04570f50eb81441489c9a3983391e8aaf888ac",
                          "reqSigs": 1,
                          "type": "pubkeyhash",
                          "addresses": [
                              "TmeRp1j28asEALtNEbKcDVqZM9AYUeJ3DAn"
                          ]
                      }
                  }
              ],
              "blockhash": "2ab494fc575b8c77356b00084a524932717a8d8522fe203b202eaa27a3f3bc7c",
              "confirmations": 3398
          }
      ],
      "stateRoot": "0000000000000000000000000000000000000000000000000000000000000000",
      "bits": "2014500",
      "difficulty": 33637632,
      "pow": {
          "pow_name": "cuckaroo",
          "pow_type": 1,
          "nonce": 186812111,
          "proof_data": {
              "edge_bits": 25,
              "circle_nonces": "d201040065a424000018300034e25f00c82c620041f06300d79e6600cf97770040ee77005aef7c00a7ad8c002e158f002f099f00ba05ba0086f5bd00c292ee000017fa00d3e70001eeb50101be1605018a050f017e8a1201babc1d01d76d2e0127fd34017b7a3e01a023440192016001c3bd67014eb46a016503710190b97301ab177901488c7e0117498001df428d016117ae014e69b0014dd9b0016b76c0014806cb011899e401"
          }
      },
      "timestamp": "2019-10-28T23:57:27+08:00",
      "parentroot": "17db39d1b607a974b6c8767035e1a4434fa66b121aa4d06485d75d6322bcd274",
      "parents": [
          "17db39d1b607a974b6c8767035e1a4434fa66b121aa4d06485d75d6322bcd274"
      ],
      "children": [
          "122254ddfcee58d4c599dc853c2cf5aa87fd42fb883057f787862b511c19e402"
      ]
    }
  },
  "ScriptTest" : [
    {
    "asm": "OP_DUP OP_HASH160 699e7e705893b4e7b3f9742ca55a743c7167288a OP_EQUALVERIFY OP_CHECKSIG",
    "hex": "76a914699e7e705893b4e7b3f9742ca55a743c7167288a88ac"
    },
    {
    "asm": "304402204cceb6f5ef004ecfbf5a6a38137f5e154e99f008289b5e9bc38f35c02a6af0420220310726bd11de57206487fc49aa250ce68e1acdfe332c736ec999abbb04e0758d01 02abb13cd5260d3e9f8bc3db8687147ace7b6e5b63b061afe37d09a8e4550cd174",
    "hex": "47304402204cceb6f5ef004ecfbf5a6a38137f5e154e99f008289b5e9bc38f35c02a6af0420220310726bd11de57206487fc49aa250ce68e1acdfe332c736ec999abbb04e0758d012102abb13cd5260d3e9f8bc3db8687147ace7b6e5b63b061afe37d09a8e4550cd174"
    }
  ],
  "ScriptRemoveTest" : [
    {
      "before":{
        "asm": "OP_DUP OP_HASH160 OP_CODESEPARATOR OP_EQUALVERIFY OP_CHECKSIG",
        "hex": "76a9ab88ac"
      },
      "after":{
        "asm": "OP_DUP OP_HASH160 OP_EQUALVERIFY OP_CHECKSIG",
        "hex": "76a988ac"
      }
    }
  ],
  "SignHashTest" : [
    {
      "txHex" : "01000000013f4c8c3c1726e6d813071ae4eb9ffec97d0350342a70a316f500b3873a834ddb02000000ffffffff02000000b89a3e0a0000001976a91469570a6c1fcb68db1b1c50b34960e714d42c7b9c88ac00008033023b000000001976a914c693f8fbfe6836f1fb55579b427cfc4fd201495388ac00000000000000001e983460016b483045022100abda2352d8e4cbd0fc23abfa770abac65518f3cd340d4b95619055b7324409660220139ab3f6ed0d8e0bffa96ab4a136019dcb8223b98756311ac37ff8f5542fbd8e012102abb13cd5260d3e9f8bc3db8687147ace7b6e5b63b061afe37d09a8e4550cd174",
      "txId"  : "f0f272ad7e2046a7a0955f1505ba902c9c97cfe276c15e9f4247911d6568ec61",
      "prvScriptHex" : "76a91465ffb166a5eb252285b207a5639f97f9dbc42dfb88ac",
      "prvScriptAsm" : "OP_DUP OP_HASH160 65ffb166a5eb252285b207a5639f97f9dbc42dfb OP_EQUALVERIFY OP_CHECKSIG",
      "type"  : "SIGHASH_ALL",
      "inIndex" : 0,
      "prefix" : "01000100013f4c8c3c1726e6d813071ae4eb9ffec97d0350342a70a316f500b3873a834ddb02000000ffffffff0200b89a3e0a0000001976a91469570a6c1fcb68db1b1c50b34960e714d42c7b9c88ac8033023b000000001976a914c693f8fbfe6836f1fb55579b427cfc4fd201495388ac00000000000000000000000000",
      "witness" : "01000300011976a91465ffb166a5eb252285b207a5639f97f9dbc42dfb88ac",
      "prefixhash": "fc96b8f5a129d3c0ce9293f1acbea9b738fb38bba09da214473f57e8b1d7e409",
      "witnesshash": "30549029d69374d02cb8d5016289eaaef3209e8c7908f6429a6e22680b749551",
      "signHash"  : "d8110438b6ef05ccffe2a9537a5020e3287166083d9778865bc35da84e1675ac",
      "signature" : "483045022100abda2352d8e4cbd0fc23abfa770abac65518f3cd340d4b95619055b7324409660220139ab3f6ed0d8e0bffa96ab4a136019dcb8223b98756311ac37ff8f5542fbd8e012102abb13cd5260d3e9f8bc3db8687147ace7b6e5b63b061afe37d09a8e4550cd174"
    },
    {
      "txHex" : "01000000013f4c8c3c1726e6d813071ae4eb9ffec97d0350342a70a316f500b3873a834ddb02000000ffffffff01000000b89a3e0a0000001976a91469570a6c1fcb68db1b1c50b34960e714d42c7b9c88ac0000000000000000020375600100",
      "txId"  : "1f26b9431ebef7c70418653cf58fd7d6b0db294c6445f2edc8c69f5e6680c556",
      "prvScriptHex" : "76a91465ffb166a5eb252285b207a5639f97f9dbc42dfb88ac" ,
      "prvScriptAsm" : "OP_DUP OP_HASH160 65ffb166a5eb252285b207a5639f97f9dbc42dfb OP_EQUALVERIFY OP_CHECKSIG",
      "signHash" : "702dccd81a88fc3b5561172d9f3ddaa2fecf8a0422d0c8a73ee6867e592e30e8",
      "signature" : "3044022061e957624fc53e9be6217845ed9c7251c04de33fd5143dab84e73c27193effe40220231ba5e6365277af20d41e8e08413147247070b7022f0cbbe9cbb35dc16e24d8"
    }
  ]

}