{
  "entropy" : "6cfbd42df51a8a4c53675172f34a606a604b55dea75beee6ac1e2bb28f608331",
  "base58":[
    ["0c19fc4e878b2fb6c7c610aa0eec1f68f2028bb6","An9mxLYzbKZ8d8EJVwVLuv5pFss"]
  ],
  "base58check":[
    [
      "0c19fc4e878b2fb6c7c610aa0eec1f68f2028bb6","1Ch7VrkAksmkAECjx1L7SmkvurPVMbsVD3",
      {
        "coin": "btc",
        "network": "mainnet"
      }
    ],
    [
      "0c19fc4e878b2fb6c7c610aa0eec1f68f2028bb6","NmHNB2T6pYWj2xRnNZZAuXkXx3iEfiQmocS",
      {
        "coin": "nox",
        "network": "mainnet"
      }
    ],
    [
      "0c19fc4e878b2fb6c7c610aa0eec1f68f2028bb6","TmQ44wk1YTapkbwJqD3KhA9nAqQznL9vqFW",
      {
        "coin": "nox",
        "network": "testnet"
      }
    ],
    [
      "0c19fc4e878b2fb6c7c610aa0eec1f68f2028bb6","Rm7NkPMsHGSuYFg1o8o4b1v7owdYArn596R",
      {
        "coin": "nox",
        "network": "privnet"
      }
    ],
    [
      "65ffb166a5eb252285b207a5639f97f9dbc42dfb","RmFa5hnPd3uQRpzr3xWTfr8EFZdX7dS1qzV",
      {
        "coin": "nox",
        "network": "privnet"
      }
    ]
  ],
  "hash" : {
    "sha256" : [
      [   "", "e3b0c44298fc1c149afbf4c8996fb92427ae41e4649b934ca495991b7852b855" ],
      [ "00", "6e340b9cffb37a989ca544e6bb780a2c78901d3fb33738768511a30617afa01d" ]
    ],
    "blake2b256" : [
      [   "", "0e5751c026e543b2e8ab2eb06099daa1d1e5df47778f7787faab45cdf12fe3a8" ],
      [ "01", "ee155ace9c40292074cb6aff8c9ccdd273c81648ff1149ef36bcea6ebb8a3e25" ]
    ],
    "hash160" : [
      [ "03194f326b7ab00f8a6e3a780450cf23eba8063b4ebc3a6cc38d53b21492863d75","0c19fc4e878b2fb6c7c610aa0eec1f68f2028bb6"]
    ]
  },
  "EC" : {
    "wif" : {
      "compressed" : [
        ["84ec10bb16e64e8d02b1142ea5c7a564c6f9ac3203d5cfd2adfaa11d62b15411","L1g6Qv9Q7H6mraoqLQ4r4pH4up2qfVqzx6y48AoUw1zkke9BnR1F"],
        ["1a6102e379162ea3f3dab3546161cff41e12ed89dfe37efc2833fd1831d3d157","Kx6zGGVJHDKe8AonXjAE5HP7GnZ3X6mWtX6KG5eFfgDdmfbDt1YE"]
      ],
      "uncompressed" : [
        ["84ec10bb16e64e8d02b1142ea5c7a564c6f9ac3203d5cfd2adfaa11d62b15411","5Jppu6F8xLxgchjnPX9aKY6uYT4b8pKMNzzZRjYq1uniBRWhZ1Z"],
        ["1a6102e379162ea3f3dab3546161cff41e12ed89dfe37efc2833fd1831d3d157","5J1uPwiJWW5Dwe7XFfYznq7pe7F4HniMNBtxLjHbb8ynVFYEh1x"]
      ]
    },
    "keypair" : {
      "compressed": [
        [ "0000000000000000000000000000000000000000000000000000000000000001",
          "0279be667ef9dcbbac55a06295ce870b07029bfcdb2dce28d959f2815b16f81798" ]
      ],
      "uncompressed": [
        [ "0000000000000000000000000000000000000000000000000000000000000001",
          "0479be667ef9dcbbac55a06295ce870b07029bfcdb2dce28d959f2815b16f81798483ada7726a3c4655da4fbfc0e1108a8fd17b448a68554199c47d08ffb10d4b8"]
      ]
    }
  },
  "TX" : {
    "nowitness" : {
      "hex" : "01000000013f4c8c3c1726e6d813071ae4eb9ffec97d0350342a70a316f500b3873a834ddb02000000ffffffff0200b89a3e0a0000001976a91469570a6c1fcb68db1b1c50b34960e714d42c7b9c88ac8033023b000000001976a914c693f8fbfe6836f1fb55579b427cfc4fd201495388ac00000000000000000100",
      "tx" : {
        "txid": "cbb540d78ea976b005f9a7547b149cefab14b01e9ee7e76d7491a6a9488629e9",
        "txhash": "8cf23c99de1888c3b74eedf3b9fbdb346d94154feba5295fad99b0e6d3a11fb7",
        "version": 1,
        "locktime": 0,
        "expire": 0,
        "vin": [
          {
            "txid": "db4d833a87b300f516a3702a3450037dc9fe9febe41a0713d8e626173c8c4c3f",
            "vout": 2,
            "sequence": 4294967295,
            "amountin": 0,
            "blockheight": 0,
            "blockindex": 0,
            "scriptSig": {
              "asm": "",
              "hex": ""
            }
          }
        ],
        "vout": [
          {
            "amount": 44000000000,
            "scriptPubKey": {
              "asm": "OP_DUP OP_HASH160 69570a6c1fcb68db1b1c50b34960e714d42c7b9c OP_EQUALVERIFY OP_CHECKSIG",
              "hex": "76a91469570a6c1fcb68db1b1c50b34960e714d42c7b9c88ac",
              "reqSigs": 1,
              "type": "pubkeyhash",
              "addresses": [
                "RmFskNPMcPLn4KpDqYzkgwBoa5soPS2SDDH"
              ]
            }
          },
          {
            "amount": 990000000,
            "scriptPubKey": {
              "asm": "OP_DUP OP_HASH160 c693f8fbfe6836f1fb55579b427cfc4fd2014953 OP_EQUALVERIFY OP_CHECKSIG",
              "hex": "76a914c693f8fbfe6836f1fb55579b427cfc4fd201495388ac",
              "reqSigs": 1,
              "type": "pubkeyhash",
              "addresses": [
                "RmQNkCr8ehRUzJhmNmgQVByv7VjakuCjc3d"
              ]
            }
          }
        ]
      }
    },
    "witness" : {
      "hex":"01000000013f4c8c3c1726e6d813071ae4eb9ffec97d0350342a70a316f500b3873a834ddb02000000ffffffff0200b89a3e0a0000001976a91469570a6c1fcb68db1b1c50b34960e714d42c7b9c88ac8033023b000000001976a914c693f8fbfe6836f1fb55579b427cfc4fd201495388ac0000000000000000016a47304402204c55811103d1a786210b3c88a8a852462bce22f690a555b60541d69ca88279d9022030e3ec4bb23710690317d1d03fc9af8c044593b937e92c4dd4ca0082c16a3ae3012102abb13cd5260d3e9f8bc3db8687147ace7b6e5b63b061afe37d09a8e4550cd174",
      "tx":{
        "txid": "cbb540d78ea976b005f9a7547b149cefab14b01e9ee7e76d7491a6a9488629e9",
        "txhash": "ee52419cf8edac7c540a20285108d4741066b3260b3233b2e1a0da38aad75114",
        "version": 1,
        "locktime": 0,
        "expire": 0,
        "vin": [
          {
            "txid": "db4d833a87b300f516a3702a3450037dc9fe9febe41a0713d8e626173c8c4c3f",
            "vout": 2,
            "sequence": 4294967295,
            "amountin": 45000000000,
            "blockheight": 21,
            "txindex": 0,
            "scriptSig": {
              "asm": "304402204c55811103d1a786210b3c88a8a852462bce22f690a555b60541d69ca88279d9022030e3ec4bb23710690317d1d03fc9af8c044593b937e92c4dd4ca0082c16a3ae301 02abb13cd5260d3e9f8bc3db8687147ace7b6e5b63b061afe37d09a8e4550cd174",
              "hex": "47304402204c55811103d1a786210b3c88a8a852462bce22f690a555b60541d69ca88279d9022030e3ec4bb23710690317d1d03fc9af8c044593b937e92c4dd4ca0082c16a3ae3012102abb13cd5260d3e9f8bc3db8687147ace7b6e5b63b061afe37d09a8e4550cd174"
            }
          }
        ],
        "vout": [
          {
            "amount": 44000000000,
            "scriptPubKey": {
              "asm": "OP_DUP OP_HASH160 69570a6c1fcb68db1b1c50b34960e714d42c7b9c OP_EQUALVERIFY OP_CHECKSIG",
              "hex": "76a91469570a6c1fcb68db1b1c50b34960e714d42c7b9c88ac",
              "reqSigs": 1,
              "type": "pubkeyhash",
              "addresses": [
                "RmFskNPMcPLn4KpDqYzkgwBoa5soPS2SDDH"
              ]
            }
          },
          {
            "amount": 990000000,
            "scriptPubKey": {
              "asm": "OP_DUP OP_HASH160 c693f8fbfe6836f1fb55579b427cfc4fd2014953 OP_EQUALVERIFY OP_CHECKSIG",
              "hex": "76a914c693f8fbfe6836f1fb55579b427cfc4fd201495388ac",
              "reqSigs": 1,
              "type": "pubkeyhash",
              "addresses": [
                "RmQNkCr8ehRUzJhmNmgQVByv7VjakuCjc3d"
              ]
            }
          }
        ]
      }
    },
    "twoinputs" : {
      "hex" : "01000000024d5bc33e3459ed69c0ceeca74813299696f0bde150441fdcb1055aedfc586ad402000000ffffffffdd9f4dcb71296564d79ff5cc2b4a6581e497ea47a1ebb0c92d55efe1d9d3a64602000000ffffffff02003ad0b8140000001976a91469570a6c1fcb68db1b1c50b34960e714d42c7b9c88ac8033023b000000001976a914c693f8fbfe6836f1fb55579b427cfc4fd201495388ac0000000000000000026a473044022005422cf4f7a082fe931509b44aee54c3d3c80b1f0d43ed1483ffeb7248857fe402202b9c050ed0fbb9883c8ff98d8a48c33483b32ad776d6746365f9b8851e6dcda5012102abb13cd5260d3e9f8bc3db8687147ace7b6e5b63b061afe37d09a8e4550cd1746b483045022100be434e16f4c83947b1a19fefbf319b7170b280c9a0d89c0786624a83bda337910220395753153ab55b21d7041705c75f42778d7846a41ca5cbb5b033f875d20a9f15012102abb13cd5260d3e9f8bc3db8687147ace7b6e5b63b061afe37d09a8e4550cd174",
      "hexnowit": "01000100024d5bc33e3459ed69c0ceeca74813299696f0bde150441fdcb1055aedfc586ad402000000ffffffffdd9f4dcb71296564d79ff5cc2b4a6581e497ea47a1ebb0c92d55efe1d9d3a64602000000ffffffff02003ad0b8140000001976a91469570a6c1fcb68db1b1c50b34960e714d42c7b9c88ac8033023b000000001976a914c693f8fbfe6836f1fb55579b427cfc4fd201495388ac0000000000000000",
      "hexwit": "01000200020082357a0a00000001000000000000006a473044022005422cf4f7a082fe931509b44aee54c3d3c80b1f0d43ed1483ffeb7248857fe402202b9c050ed0fbb9883c8ff98d8a48c33483b32ad776d6746365f9b8851e6dcda5012102abb13cd5260d3e9f8bc3db8687147ace7b6e5b63b061afe37d09a8e4550cd1740082357a0a00000002000000000000006b483045022100be434e16f4c83947b1a19fefbf319b7170b280c9a0d89c0786624a83bda337910220395753153ab55b21d7041705c75f42778d7846a41ca5cbb5b033f875d20a9f15012102abb13cd5260d3e9f8bc3db8687147ace7b6e5b63b061afe37d09a8e4550cd174",
      "txid": "109ad11ddca63527dc5bbf8906c33eef958e8d585e14ac3070f5af712aae4f82",
      "txhash": "c35544948c5a75e1e30de25b246ced643debaabfe2d536e57adf8092c310e2df",
      "version": 1,
      "locktime": 0,
      "expire": 0,
      "vin": [
        {
          "txid": "d46a58fced5a05b1dc1f4450e1bdf09696291348a7eccec069ed59343ec35b4d",
          "vout": 2,
          "sequence": 4294967295,
          "amountin": 45000000000,
          "blockheight": 1,
          "txindex": 0,
          "scriptSig": {
            "asm": "3044022005422cf4f7a082fe931509b44aee54c3d3c80b1f0d43ed1483ffeb7248857fe402202b9c050ed0fbb9883c8ff98d8a48c33483b32ad776d6746365f9b8851e6dcda501 02abb13cd5260d3e9f8bc3db8687147ace7b6e5b63b061afe37d09a8e4550cd174",
            "hex": "473044022005422cf4f7a082fe931509b44aee54c3d3c80b1f0d43ed1483ffeb7248857fe402202b9c050ed0fbb9883c8ff98d8a48c33483b32ad776d6746365f9b8851e6dcda5012102abb13cd5260d3e9f8bc3db8687147ace7b6e5b63b061afe37d09a8e4550cd174"
          }
        },
        {
          "txid": "46a6d3d9e1ef552dc9b0eba147ea97e481654a2bccf59fd764652971cb4d9fdd",
          "vout": 2,
          "sequence": 4294967295,
          "amountin": 45000000000,
          "blockheight": 2,
          "txindex": 0,
          "scriptSig": {
            "asm": "3045022100be434e16f4c83947b1a19fefbf319b7170b280c9a0d89c0786624a83bda337910220395753153ab55b21d7041705c75f42778d7846a41ca5cbb5b033f875d20a9f1501 02abb13cd5260d3e9f8bc3db8687147ace7b6e5b63b061afe37d09a8e4550cd174",
            "hex": "483045022100be434e16f4c83947b1a19fefbf319b7170b280c9a0d89c0786624a83bda337910220395753153ab55b21d7041705c75f42778d7846a41ca5cbb5b033f875d20a9f15012102abb13cd5260d3e9f8bc3db8687147ace7b6e5b63b061afe37d09a8e4550cd174"
          }
        }
      ],
      "vout": [
        {
          "amount": 89000000000,
          "scriptPubKey": {
            "asm": "OP_DUP OP_HASH160 69570a6c1fcb68db1b1c50b34960e714d42c7b9c OP_EQUALVERIFY OP_CHECKSIG",
            "hex": "76a91469570a6c1fcb68db1b1c50b34960e714d42c7b9c88ac",
            "reqSigs": 1,
            "type": "pubkeyhash",
            "addresses": [
              "RmFskNPMcPLn4KpDqYzkgwBoa5soPS2SDDH"
            ]
          }
        },
        {
          "amount": 990000000,
          "scriptPubKey": {
            "asm": "OP_DUP OP_HASH160 c693f8fbfe6836f1fb55579b427cfc4fd2014953 OP_EQUALVERIFY OP_CHECKSIG",
            "hex": "76a914c693f8fbfe6836f1fb55579b427cfc4fd201495388ac",
            "reqSigs": 1,
            "type": "pubkeyhash",
            "addresses": [
              "RmQNkCr8ehRUzJhmNmgQVByv7VjakuCjc3d"
            ]
          }
        }
      ],
      "blockheight": 101,
      "confirmations": 1
    }
  },
  "Block" : {
    "hex" : "080000000ad2492aca6d17384ae791d20ad7deccb7d67bf0f15d4c53fba067ca4d000000be1a38f4e14b7abe77b6cdd5449cd2698ada2108c7e55fc44643bb54ae1b45c60000000000000000000000000000000000000000000000000000000000000000ffff001e6400000000000000a113825d00000000e912f01d02181f57010100000001d8055fdc29a2eb78e9eed1adb6f3ea208f4ff907a4b64cc037df40d886d69450ffffffffffffffff0280461c86000000001976a914e2901efe76aa8604003489a176581c669d6e88dc88ac80b2e60e000000001976a914868b9b6bc7e4a9c804ad3d3d7a2a6be27476941e88ac000000000000000001510164081ecdcf84765f4e5d2067726467686e766933706f6f6c363732333431363235363334393731393833382463663239326138622d346138392d343736312d616465352d376239656261623738393539",
    "json" : {
      "hash": "0000009369e44eb50c8e36fe500a2cdb88f4926a1a80bd96f4ce86c7ed5a5e40",
      "txsvalid": true,
      "confirmations": 6285,
      "version": 8,
      "weight": 419,
      "height": 100,
      "txRoot": "c6451bae54bb4346c45fe5c70821da8a69d29c44d5cdb677be7a4be1f4381abe",
      "order": 100,
      "transactions": [
        {
          "hex": "0100000001d8055fdc29a2eb78e9eed1adb6f3ea208f4ff907a4b64cc037df40d886d69450ffffffffffffffff0280461c86000000001976a914e2901efe76aa8604003489a176581c669d6e88dc88ac80b2e60e000000001976a914868b9b6bc7e4a9c804ad3d3d7a2a6be27476941e88ac000000000000000001510164081ecdcf84765f4e5d2067726467686e766933706f6f6c363732333431363235363334393731393833382463663239326138622d346138392d343736312d616465352d376239656261623738393539",
          "txid": "c6451bae54bb4346c45fe5c70821da8a69d29c44d5cdb677be7a4be1f4381abe",
          "txhash": "14ce743ab8aa076fe76877a3620ffd368bf32e974276a0c9c943e1e59a111710",
          "size": 205,
          "version": 1,
          "locktime": 0,
          "expire": 0,
          "vin": [
              {
                  "coinbase": "0164081ecdcf84765f4e5d2067726467686e766933706f6f6c363732333431363235363334393731393833382463663239326138622d346138392d343736312d616465352d376239656261623738393539",
                  "sequence": 4294967295
              }
          ],
          "vout": [
              {
                  "amount": 2250000000,
                  "scriptPubKey": {
                      "asm": "OP_DUP OP_HASH160 e2901efe76aa8604003489a176581c669d6e88dc OP_EQUALVERIFY OP_CHECKSIG",
                      "hex": "76a914e2901efe76aa8604003489a176581c669d6e88dc88ac",
                      "reqSigs": 1,
                      "type": "pubkeyhash",
                      "addresses": [
                          "Tmjc34zWMTAASHTwcNtPppPujFKVK5SeuaJ"
                      ]
                  }
              },
              {
                  "amount": 250000000,
                  "scriptPubKey": {
                      "asm": "OP_DUP OP_HASH160 868b9b6bc7e4a9c804ad3d3d7a2a6be27476941e OP_EQUALVERIFY OP_CHECKSIG",
                      "hex": "76a914868b9b6bc7e4a9c804ad3d3d7a2a6be27476941e88ac",
                      "reqSigs": 1,
                      "type": "pubkeyhash",
                      "addresses": [
                          "TmbDVVi4EdZZ1vpWYjS2wFaCKmxXchpk3qp"
                      ]
                  }
              }
          ],
          "blockhash": "0000009369e44eb50c8e36fe500a2cdb88f4926a1a80bd96f4ce86c7ed5a5e40",
          "confirmations": 6285
        }
      ],
      "stateRoot": "0000000000000000000000000000000000000000000000000000000000000000",
      "bits": "1e00ffff",
      "difficulty": 503382015,
      "nonce": "6277762802949034729",
      "timestamp": "2019-09-18T19:23:13+08:00",
      "parentRoot": "0000004dca67a0fb534c5df1f07bd6b7ccded70ad291e74a38176dca2a49d20a",
      "parents": [ "0000004dca67a0fb534c5df1f07bd6b7ccded70ad291e74a38176dca2a49d20a" ],
      "children": [ "0000006bcbaae11d4e2f90b6a169db99a6f0fee33de34a3807478c19f53253cb" ]
    }
  },
  "BlockHeader" : {
    "hex" : "010000001cd20dd4fe0bd2c9776976d6bbbc32f59c70c59d6163ebf7a8f820ba129707004077e27cdd90b0e533162e744feb2c0ebc80d2535e1ea4b4b9473ee7ee994a9000000000000000000000000000000000000000000000000000000000000000009055101f7200000000000000b018c85b1303000000000000",
    "json": {
      "hash": "00060dd33f897c406a426040029a583140e98c8882951a4ea4799b4f50fb1a40",
      "confirmations": 5,
      "version": 1,
      "previousblockhash": "00079712ba20f8a8f7eb63619dc5709cf532bcbbd6766977c9d20bfed40dd21c",
      "txRoot": "904a99eee73e47b9b4a41e5e53d280bc0e2ceb4f742e1633e5b090dd7ce27740",
      "stateRoot": "0000000000000000000000000000000000000000000000000000000000000000",
      "difficulty": 521164176,
      "height": 114,
      "time": 1539840176,
      "nonce": 787,
      "nextblockhash": "00079f27d18657c672e93dd76177e083664953af03db97559e55734fcf65cd0f"
    }
  },
  "BlockMultipleTx" : {
    "hex" : "01000000810228025189672d3c62ab81575c6fb718f41682a8d4ac5bca3ed2bffd8532003cdc7df7fe7329a17cac6f209fac52e3012ee9597ca0818c7e23ed1555117a7900000000000000000000000000000000000000000000000000000000000000004056411f6900000000000000af18c85ba9050000000000000301000000010000000000000000000000000000000000000000000000000000000000000000ffffffffffffffff0300f2052a010000001976a914699e7e705893b4e7b3f9742ca55a743c7167288a88ac00000000000000000e6a0c6900000072456940c660521300af667b0a0000001976a91465ffb166a5eb252285b207a5639f97f9dbc42dfb88ac00000000000000000100743ba40b00000000000000ffffffff0700002f6e6f782f0100000001ccdaa4ce451d99fd04d03dcee9042dc7ab9143b2f449d8db86dcfd727b5c6b0e02000000ffffffff0180eb9c790a0000001976a91469570a6c1fcb68db1b1c50b34960e714d42c7b9c88ac0000000000000000010082357a0a00000004000000000000006a47304402204cceb6f5ef004ecfbf5a6a38137f5e154e99f008289b5e9bc38f35c02a6af0420220310726bd11de57206487fc49aa250ce68e1acdfe332c736ec999abbb04e0758d012102abb13cd5260d3e9f8bc3db8687147ace7b6e5b63b061afe37d09a8e4550cd1740100000001ef7400e4365aac616e82012f6eaf5f6144c0902517ba19eee0e92a19b9708cf802000000ffffffff0180eb9c790a0000001976a91469570a6c1fcb68db1b1c50b34960e714d42c7b9c88ac0000000000000000010082357a0a00000003000000000000006b483045022100880c2ec24d2a92d8df9ce8ef59f7a803fb7f2d4ce3bd54755c1885127fc606fb0220304d889d3c154aadf796c83f7fa4a81913e9b5661bfc0c906a5e9367248d2394012102abb13cd5260d3e9f8bc3db8687147ace7b6e5b63b061afe37d09a8e4550cd174",
    "header" : "01000000810228025189672d3c62ab81575c6fb718f41682a8d4ac5bca3ed2bffd8532003cdc7df7fe7329a17cac6f209fac52e3012ee9597ca0818c7e23ed1555117a7900000000000000000000000000000000000000000000000000000000000000004056411f6900000000000000af18c85ba905000000000000",
    "json" : {
      "hash": "000c382a5a7b339d75e1eff1386cff395c27000dded978bfc919b0ff09ec9654",
      "confirmations": 14,
      "version": 1,
      "height": 105,
      "txRoot": "797a115515ed237e8c81a07c59e92e01e352ac9f206fac7ca12973fef77ddc3c",
      "transactions": [
        {
          "hex": "01000000010000000000000000000000000000000000000000000000000000000000000000ffffffffffffffff0300f2052a010000001976a914699e7e705893b4e7b3f9742ca55a743c7167288a88ac00000000000000000e6a0c6900000072456940c660521300af667b0a0000001976a91465ffb166a5eb252285b207a5639f97f9dbc42dfb88ac00000000000000000100743ba40b00000000000000ffffffff0700002f6e6f782f",
          "hexnowit": "01000100010000000000000000000000000000000000000000000000000000000000000000ffffffffffffffff0300f2052a010000001976a914699e7e705893b4e7b3f9742ca55a743c7167288a88ac00000000000000000e6a0c6900000072456940c660521300af667b0a0000001976a91465ffb166a5eb252285b207a5639f97f9dbc42dfb88ac0000000000000000",
          "hexwit": "010002000100743ba40b00000000000000ffffffff0700002f6e6f782f",
          "txid": "2cfaef79ad3eee8e66c64f7fb16e95bc979c5019abad1134396ca71415a24457",
          "txhash": "8ef53717777be25dd2ec17456a2e749769b5a34f684577744fb9d8491c2fb4c3",
          "version": 1,
          "locktime": 0,
          "expire": 0,
          "vin": [
            {
              "amountin": 50000000000,
              "blockheight": 0,
              "txindex": 4294967295,
              "coinbase": "00002f6e6f782f",
              "sequence": 4294967295
            }
          ],
          "vout": [
            {
              "amount": 5000000000,
              "scriptPubKey": {
                "asm": "OP_DUP OP_HASH160 699e7e705893b4e7b3f9742ca55a743c7167288a OP_EQUALVERIFY OP_CHECKSIG",
                "hex": "76a914699e7e705893b4e7b3f9742ca55a743c7167288a88ac",
                "reqSigs": 1,
                "type": "pubkeyhash",
                "addresses": [
                  "RmFuDy3KowguWK63umdUzQBj3L4nKDmF43W"
                ]
              }
            },
            {
              "amount": 0,
              "scriptPubKey": {
                "asm": "OP_RETURN 6900000072456940c6605213",
                "hex": "6a0c6900000072456940c6605213",
                "type": "nulldata"
              }
            },
            {
              "amount": 45020000000,
              "scriptPubKey": {
                "asm": "OP_DUP OP_HASH160 65ffb166a5eb252285b207a5639f97f9dbc42dfb OP_EQUALVERIFY OP_CHECKSIG",
                "hex": "76a91465ffb166a5eb252285b207a5639f97f9dbc42dfb88ac",
                "reqSigs": 1,
                "type": "pubkeyhash",
                "addresses": [
                  "RmFa5hnPd3uQRpzr3xWTfr8EFZdX7dS1qzV"
                ]
              }
            }
          ],
          "blockheight": 105,
          "confirmations": 14
        },
        {
          "hex": "0100000001ccdaa4ce451d99fd04d03dcee9042dc7ab9143b2f449d8db86dcfd727b5c6b0e02000000ffffffff0180eb9c790a0000001976a91469570a6c1fcb68db1b1c50b34960e714d42c7b9c88ac0000000000000000010082357a0a00000004000000000000006a47304402204cceb6f5ef004ecfbf5a6a38137f5e154e99f008289b5e9bc38f35c02a6af0420220310726bd11de57206487fc49aa250ce68e1acdfe332c736ec999abbb04e0758d012102abb13cd5260d3e9f8bc3db8687147ace7b6e5b63b061afe37d09a8e4550cd174",
          "hexnowit": "0100010001ccdaa4ce451d99fd04d03dcee9042dc7ab9143b2f449d8db86dcfd727b5c6b0e02000000ffffffff0180eb9c790a0000001976a91469570a6c1fcb68db1b1c50b34960e714d42c7b9c88ac0000000000000000",
          "hexwit": "01000200010082357a0a00000004000000000000006a47304402204cceb6f5ef004ecfbf5a6a38137f5e154e99f008289b5e9bc38f35c02a6af0420220310726bd11de57206487fc49aa250ce68e1acdfe332c736ec999abbb04e0758d012102abb13cd5260d3e9f8bc3db8687147ace7b6e5b63b061afe37d09a8e4550cd174",
          "txid": "f7aebbcaed1424b396b78410c18152be25d2c023827516a55ddf97beecf029ce",
          "txhash": "9864f89955220045e19c7b2d6949f2e89b00d4f051c52b319f47b0ba083edc6b",
          "version": 1,
          "locktime": 0,
          "expire": 0,
          "vin": [
            {
              "txid": "0e6b5c7b72fddc86dbd849f4b24391abc72d04e9ce3dd004fd991d45cea4dacc",
              "vout": 2,
              "sequence": 4294967295,
              "amountin": 45000000000,
              "blockheight": 4,
              "txindex": 0,
              "scriptSig": {
                "asm": "304402204cceb6f5ef004ecfbf5a6a38137f5e154e99f008289b5e9bc38f35c02a6af0420220310726bd11de57206487fc49aa250ce68e1acdfe332c736ec999abbb04e0758d01 02abb13cd5260d3e9f8bc3db8687147ace7b6e5b63b061afe37d09a8e4550cd174",
                "hex": "47304402204cceb6f5ef004ecfbf5a6a38137f5e154e99f008289b5e9bc38f35c02a6af0420220310726bd11de57206487fc49aa250ce68e1acdfe332c736ec999abbb04e0758d012102abb13cd5260d3e9f8bc3db8687147ace7b6e5b63b061afe37d09a8e4550cd174"
              }
            }
          ],
          "vout": [
            {
              "amount": 44990000000,
              "scriptPubKey": {
                "asm": "OP_DUP OP_HASH160 69570a6c1fcb68db1b1c50b34960e714d42c7b9c OP_EQUALVERIFY OP_CHECKSIG",
                "hex": "76a91469570a6c1fcb68db1b1c50b34960e714d42c7b9c88ac",
                "reqSigs": 1,
                "type": "pubkeyhash",
                "addresses": [
                  "RmFskNPMcPLn4KpDqYzkgwBoa5soPS2SDDH"
                ]
              }
            }
          ],
          "blockheight": 105,
          "confirmations": 14
        },
        {
          "hex": "0100000001ef7400e4365aac616e82012f6eaf5f6144c0902517ba19eee0e92a19b9708cf802000000ffffffff0180eb9c790a0000001976a91469570a6c1fcb68db1b1c50b34960e714d42c7b9c88ac0000000000000000010082357a0a00000003000000000000006b483045022100880c2ec24d2a92d8df9ce8ef59f7a803fb7f2d4ce3bd54755c1885127fc606fb0220304d889d3c154aadf796c83f7fa4a81913e9b5661bfc0c906a5e9367248d2394012102abb13cd5260d3e9f8bc3db8687147ace7b6e5b63b061afe37d09a8e4550cd174",
          "hexnowit": "0100010001ef7400e4365aac616e82012f6eaf5f6144c0902517ba19eee0e92a19b9708cf802000000ffffffff0180eb9c790a0000001976a91469570a6c1fcb68db1b1c50b34960e714d42c7b9c88ac0000000000000000",
          "hexwit": "01000200010082357a0a00000003000000000000006b483045022100880c2ec24d2a92d8df9ce8ef59f7a803fb7f2d4ce3bd54755c1885127fc606fb0220304d889d3c154aadf796c83f7fa4a81913e9b5661bfc0c906a5e9367248d2394012102abb13cd5260d3e9f8bc3db8687147ace7b6e5b63b061afe37d09a8e4550cd174",
          "txid": "58feb9a48c0ec0812aa8243e0204e94f15b4fb695bc3447c7c07da8ebfbdd08c",
          "txhash": "6958addbec1f2b4adeb281ce7ac0217825bd4679429c97afe39ae9674628d03b",
          "version": 1,
          "locktime": 0,
          "expire": 0,
          "vin": [
            {
              "txid": "f88c70b9192ae9e0ee19ba172590c044615faf6e2f01826e61ac5a36e40074ef",
              "vout": 2,
              "sequence": 4294967295,
              "amountin": 45000000000,
              "blockheight": 3,
              "txindex": 0,
              "scriptSig": {
                "asm": "3045022100880c2ec24d2a92d8df9ce8ef59f7a803fb7f2d4ce3bd54755c1885127fc606fb0220304d889d3c154aadf796c83f7fa4a81913e9b5661bfc0c906a5e9367248d239401 02abb13cd5260d3e9f8bc3db8687147ace7b6e5b63b061afe37d09a8e4550cd174",
                "hex": "483045022100880c2ec24d2a92d8df9ce8ef59f7a803fb7f2d4ce3bd54755c1885127fc606fb0220304d889d3c154aadf796c83f7fa4a81913e9b5661bfc0c906a5e9367248d2394012102abb13cd5260d3e9f8bc3db8687147ace7b6e5b63b061afe37d09a8e4550cd174"
              }
            }
          ],
          "vout": [
            {
              "amount": 44990000000,
              "scriptPubKey": {
                "asm": "OP_DUP OP_HASH160 69570a6c1fcb68db1b1c50b34960e714d42c7b9c OP_EQUALVERIFY OP_CHECKSIG",
                "hex": "76a91469570a6c1fcb68db1b1c50b34960e714d42c7b9c88ac",
                "reqSigs": 1,
                "type": "pubkeyhash",
                "addresses": [
                  "RmFskNPMcPLn4KpDqYzkgwBoa5soPS2SDDH"
                ]
              }
            }
          ],
          "blockheight": 105,
          "confirmations": 14
        }
      ],
      "stateRoot": "0000000000000000000000000000000000000000000000000000000000000000",
      "bits": "1f415640",
      "difficulty": 524375616,
      "nonce": 1449,
      "timestamp": "2018-10-18 13:22:55.0000",
      "parentHash": "003285fdbfd23eca5bacd4a88216f418b76f5c5781ab623c2d67895102280281",
      "childrenHash": "002f43a9ca8e72b45e546da957ebd07c667d84105355d62c83592f7f32e1f2d5"
    }
  },
  "ScriptTest" : [
    {
    "asm": "OP_DUP OP_HASH160 699e7e705893b4e7b3f9742ca55a743c7167288a OP_EQUALVERIFY OP_CHECKSIG",
    "hex": "76a914699e7e705893b4e7b3f9742ca55a743c7167288a88ac"
    },
    {
    "asm": "304402204cceb6f5ef004ecfbf5a6a38137f5e154e99f008289b5e9bc38f35c02a6af0420220310726bd11de57206487fc49aa250ce68e1acdfe332c736ec999abbb04e0758d01 02abb13cd5260d3e9f8bc3db8687147ace7b6e5b63b061afe37d09a8e4550cd174",
    "hex": "47304402204cceb6f5ef004ecfbf5a6a38137f5e154e99f008289b5e9bc38f35c02a6af0420220310726bd11de57206487fc49aa250ce68e1acdfe332c736ec999abbb04e0758d012102abb13cd5260d3e9f8bc3db8687147ace7b6e5b63b061afe37d09a8e4550cd174"
    }
  ],
  "ScriptRemoveTest" : [
    {
      "before":{
        "asm": "OP_DUP OP_HASH160 OP_CODESEPARATOR OP_EQUALVERIFY OP_CHECKSIG",
        "hex": "76a9ab88ac"
      },
      "after":{
        "asm": "OP_DUP OP_HASH160 OP_EQUALVERIFY OP_CHECKSIG",
        "hex": "76a988ac"
      }
    }
  ],
  "SignHashTest" : [
    {
      "txHex" : "01000100013f4c8c3c1726e6d813071ae4eb9ffec97d0350342a70a316f500b3873a834ddb02000000ffffffff0200b89a3e0a0000001976a91469570a6c1fcb68db1b1c50b34960e714d42c7b9c88ac8033023b000000001976a914c693f8fbfe6836f1fb55579b427cfc4fd201495388ac0000000000000000",
      "txId"  : "cbb540d78ea976b005f9a7547b149cefab14b01e9ee7e76d7491a6a9488629e9",
      "prvScriptHex" : "76a91465ffb166a5eb252285b207a5639f97f9dbc42dfb88ac",
      "prvScriptAsm" : "OP_DUP OP_HASH160 65ffb166a5eb252285b207a5639f97f9dbc42dfb OP_EQUALVERIFY OP_CHECKSIG",
      "type"  : "SIGHASH_ALL",
      "inIndex" : 0,
      "prefix" : "01000100013f4c8c3c1726e6d813071ae4eb9ffec97d0350342a70a316f500b3873a834ddb02000000ffffffff0200b89a3e0a0000001976a91469570a6c1fcb68db1b1c50b34960e714d42c7b9c88ac8033023b000000001976a914c693f8fbfe6836f1fb55579b427cfc4fd201495388ac00000000000000000000000000",
      "witness" : "01000300011976a91465ffb166a5eb252285b207a5639f97f9dbc42dfb88ac",
      "prefixhash": "fc96b8f5a129d3c0ce9293f1acbea9b738fb38bba09da214473f57e8b1d7e409",
      "witnesshash": "30549029d69374d02cb8d5016289eaaef3209e8c7908f6429a6e22680b749551",
      "signHash"  : "b14ca08cb6bb7185a1b22448680f6b3294401e44b26d0f0090ee033cfda19c70",
      "signature" : "304402204c55811103d1a786210b3c88a8a852462bce22f690a555b60541d69ca88279d9022030e3ec4bb23710690317d1d03fc9af8c044593b937e92c4dd4ca0082c16a3ae3"
    },
    {
      "txHex" : "01000100010ce5c5a80d3f20d07fe6715832845eca4ad3f7febd70951362c7e91f37ff0d5c02000000ffffffff0200b89a3e0a0000001976a91469570a6c1fcb68db1b1c50b34960e714d42c7b9c88ac8033023b000000001976a914c693f8fbfe6836f1fb55579b427cfc4fd201495388ac0000000000000000",
      "txId"  : "06373f8896b0ffae73fbe846a254e66429aba915492e6ec2b31886b9c228d7a8",
      "prvScriptHex" : "76a91465ffb166a5eb252285b207a5639f97f9dbc42dfb88ac" ,
      "prvScriptAsm" : "OP_DUP OP_HASH160 65ffb166a5eb252285b207a5639f97f9dbc42dfb OP_EQUALVERIFY OP_CHECKSIG",
      "signHash" : "84641b1ba5982be294fb23b94167658c587e3024a916e9d8f357217490b729d1",
      "signature" : "3044022061e957624fc53e9be6217845ed9c7251c04de33fd5143dab84e73c27193effe40220231ba5e6365277af20d41e8e08413147247070b7022f0cbbe9cbb35dc16e24d8"
    }
  ]

}